:100000000000042059020000B1020000B302000009
:10001000B5020000B7020000B902000000000000B5
:10002000000000000000000000000000BB02000013
:10003000BD02000000000000BF020000C10200007D
:10004000E1370000DDAC020009970200CB0200009E
:10005000CD020000CF020000053C0000D3020000EA
:10006000D5020000D7020000D9020000DB02000028
:10007000DD02000085940200E1020000E3020000BE
:10008000E50200004D1F0000E9020000EB02000045
:100090008D1F0000EF020000F1020000F3020000DB
:1000A000F5020000F7020000F9020000FB02000068
:1000B000FD020000FF020000C3020000C3020000B6
:1000C0000103000003030000050300000703000014
:1000D000F98C02000B0300000D0300000F03000069
:1000E0006153000013030000150300001703000014
:0800F000C30200001903000027
:1000F800364937480A1A02D0072291438D463549B6
:1001080035480A1A06D00722914381F3098802224A
:1001180082F3148831483249324A00F045F83248AF
:100128003249334A00F040F832483349334A00F044
:100138003BF833483349344A00F036F833483449F9
:10014800344A00F031F834483449354A00F02CF884
:1001580034483549354A00F027F8354835490022F2
:1001680000F02DF834483549002200F028F83448CA
:100178003449091A082903DB0022026004300160AF
:10018800314A90471F482049884205D00268043008
:1001980003B4904703BCF7E700208646EC460020EE
:1001A80000212A4A9047FEE7884207D0521A05D014
:1001B800037801300B700131013AF9D17047884258
:1001C80002D002700130FAE77047000000000420F6
:1001D80000E003200000042000000420FC43040089
:1001E8003C000020100100201C0300001C0300003C
:1001F80020B60300FC4304003C0000203C00002023
:1002080084B6030084B6030084B6030084B60300F2
:1002180084B6030084B6030084B6030084B60300E2
:10022800FC430400D0440400100100201001002009
:100238001001002008DE002008DE00200CDE00206F
:100248000CDE00200CE000207D0200006D5500004F
:100258000F484FF00701884385460E4880470E48EF
:10026800016841F470010160BFF34F8FBFF36F8FD6
:10027800FFF73EBF09480A490A4A884207D0521A7E
:1002880005D0037801300B700131013AF9D170477C
:10029800000004206559000088ED00E048B603001E
:1002A800000000203C000020FEE7FEE7FEE7FEE736
:1002B800FEE7FEE7FEE7FEE7FEE7FEE7FEE7FEE70E
:1002C800FEE7FEE7FEE7FEE7FEE7FEE7FEE7FEE7FE
:1002D800FEE7FEE7FEE7FEE7FEE7FEE7FEE7FEE7EE
:1002E800FEE7FEE7FEE7FEE7FEE7FEE7FEE7FEE7DE
:1002F800FEE7FEE7FEE7FEE7FEE7FEE7FEE7FEE7CE
:10030800FEE7FEE7FEE7FEE7FEE7FEE7FEE7FEE7BD
:04031800FEE700BF3D
:10031C000048704700DE0020FEE708B505F0FAFA49
:10032C0000BF08BD00B589B0039002910192019BFA
:10033C00002B22D0002307930A230693029A079BD3
:10034C001344019A1946002005F030FA0590079ADB
:10035C00059B13440793019A059BD31A0193059BA4
:10036C00002B05D1069B013B0693069B002B03D06B
:10037C00019B002BE2D100E000BF00BF09B05DF88B
:10038C0004FB000000B585B003900291054B00936F
:10039C004023054A0299039800F012F800BF05B0FB
:1003AC005DF804FB310300001001002082B00190C5
:1003BC0000BF02B0704782B0019000BF02B070471E
:1003CC0000B5A1B00590049103920293049802F039
:1003DC00F2FC039B1593029B1693002317930023A7
:1003EC008DF8603000231993229B1A9300231F93DE
:1003FC000FA91F9B0822049802F098FD08231F9355
:10040C00119B1293109B9BB2ADF84C3000238DF8CE
:10041C0050309DF83C3003F00303DBB2012B32D19A
:10042C000F9BC3F395231D939DF83C30C3F3C2037C
:10043C00DBB28DF84E309DF83C30C3F38003DBB259
:10044C00002B14BF01230023DBB28DF84F30BDF815
:10045C003C30C3F38313DBB21C931C9B9A0009A999
:10046C001F9B049802F062FD1C9B9B001F9A134477
:10047C001F9312AA09A915AB009313461C9A1D9839
:10048C0000F052FE3BE09DF83C3003F00303DBB27E
:10049C00022B34D1BDF83E30C3F389139BB21E93AB
:1004AC009DF83C30C3F3C203DBB28DF84E309DF89F
:1004BC003C30C3F38003DBB2002B14BF01230023B9
:1004CC00DBB28DF84F301E9B082B28BF08231B93E3
:1004DC0007A91F9B1B9A049802F028FD1F9A1B9BCF
:1004EC0013441F931E9A1B9BD31A1E9315AB12AA6F
:1004FC0007A81B9900F0BAFE1E9B002BE3D10498B1
:10050C0002F068FC00BF21B05DF804FB82B00190E2
:10051C00019B01225A7200BF02B0704700B583B034
:10052C004FF0FF330193FFF7F8FE0421084800F069
:10053C0035FD0190019B002B03DA0649412001F0A7
:10054C003CFE0348FFF7E2FF00BF03B05DF804FB7D
:10055C003C00002090B6030000B583B001900091E0
:10056C00019B1B681B6800990198984700BF03B05A
:10057C005DF804FB00B583B00190019B1B685B68C0
:10058C000198984700BF03B05DF804FB82B001905E
:10059C000B468DF80330019B9DF803201A7200BFA7
:1005AC0002B0704782B00190019B1B7A184602B0D2
:1005BC00704782B00190019B01225A7200BF02B0B9
:1005CC00704782B00190019B5B7A184602B070476D
:1005DC0010B487B001900091019B009A53E8004F32
:1005EC0044EA020043E8000191F0000FF6D10594B3
:1005FC0004900391049B184607B05DF8044B7047B8
:10060C0010B487B001900091019B009A53E8004F01
:10061C0004EA020043E8000191F0000FF6D10594C2
:10062C0004900391059B184607B05DF8044B704786
:10063C0000B583B0019001210198FFF7C9FF034673
:10064C00184603B05DF804FB00B583B0019000219F
:10065C000198FFF7D5FF0346184603B05DF804FB7D
:10066C0000B587B001901F4BFF229A601D4B0022F2
:10067C001A601C4B00225A601A4B0022C3F8182433
:10068C00184B0022C3F81424164B002283F81C24A8
:10069C00154802F0F5FA0490049B002B01D0049B42
:1006AC001CE0124A124BD31ADB0803930023059368
:1006BC000FE0059A13465B0013449B001A460D4B42
:1006CC0013440293059B9AB2029B1A80059B01333B
:1006DC000593059A039B9A42EBD30023184607B067
:1006EC005DF804FB20020020E4B6030048B60300CA
:1006FC0020B6030000000020024A034BD31ADB088B
:10070C001846704748B6030020B6030000B587B002
:10071C0001900B468DF803309DF80330002B23D04D
:10072C00FFF7EAFF04900023059317E0059A1346A0
:10073C005B0013449B001A460E4B13440393039B1C
:10074C005B881A46019B1B689A4204D1019B059A4F
:10075C001A60002309E0059B01330593059A049B5D
:10076C009A42E3D3052300E00023184607B05DF856
:10077C0004FB00BF0000002000B585B001900B46C3
:10078C008DF803309DF8032001AB11461846FFF796
:10079C00BDFF0346002B07D1019BDB00054A134428
:1007AC000393039B1B6800E00023184605B05DF81B
:1007BC0004FB00BF20B6030084B001900B468DF8FB
:1007CC000330019BDB00174A134402939DF803305E
:1007DC00013B032B1CD801A252F823F0F9070000AF
:1007EC0001080000090800001308000000238DF820
:1007FC000F3011E000238DF80F300DE0029B1B79B8
:10080C008DF80F3008E0029B5B798DF80F3003E018
:10081C0000238DF80F3000BF9DF80F30184604B040
:10082C00704700BF20B6030000B589B04148FFF700
:10083C00FFFE4148FFF7FCFE404B5B6807933F4BC4
:10084C009B680493079A049B134002339B003B4A1A
:10085C001344043306931BE0079B01330793069B59
:10086C005B88C3F389139BB21A46069B1B88C3F3A0
:10087C0089139BB213441A46079B13440793079A98
:10088C00049B134002339B002C4A134404330693FD
:10089C00069B1B7803F00303DBB2002BDCD0002398
:1008AC00059311E0059B9B006A461A44079B591C53
:1008BC00079104990B40214902339B000B445B6860
:1008CC001360059B01330593059B012BEAD99DF819
:1008DC000030C3F30103DBB2012B0CD0022B14D17B
:1008EC00BDF80230C3F389139BB203339B08079AFC
:1008FC00134407930FE0BDF80030C3F38313DBB24E
:10090C001A46079B1344079305E00D4940F24D101E
:10091C0001F053FC00BF0848FFF796FE0390039BC1
:10092C00002B02D0054A079B536000BF09B05DF84D
:10093C0004FB00BF380600203406002020020020F3
:10094C0008B7030010B586B0039002910192009392
:10095C00009B5A1C0092089A134002339B00294AB0
:10096C00134404330593059A1378012161F30103B1
:10097C001370039B03F01003002B14BF01230023FF
:10098C00D9B2059A137861F382031370039BDBB21F
:10099C0003F00703D9B2059A137861F3C5031370FA
:1009AC00019BDBB203F00F03D9B2059A138861F3F4
:1009BC0089131380029BC3F31501059A136861F325
:1009CC009F231360039B1B0CADF81230BDF8124033
:1009DC00FFF792FE03469C4204D30B4940F2691088
:1009EC0001F0EBFB009B5A1C0092089A1340BDF8D7
:1009FC001220044902339B000B445A60009B18469A
:100A0C0006B010BD2002002008B7030000B589B065
:100A1C0001900091019B023306930223059301235D
:100A2C008DF81330002001F081FB194B1A68009BE4
:100A3C001A60174B9A68164B5968154B1B68CB1AE2
:100A4C00134401330793069A059B134403930BE05D
:100A5C00FFF7EAFE0E4B9A680D4B59680C4B1B685E
:100A6C00CB1A134401330793039A079B9A42EFD88E
:100A7C00074B1A68069B1344054A1360002001F0CB
:100A8C0069FB9DF81330184609B05DF804FB00BFF4
:100A9C002002002000B58BB00590049103920293C4
:100AAC001E4B9B68089307AB19460298FFF7AEFFE5
:100ABC000346002B23D0079A089B00931346029AF7
:100ACC0004990598FFF73EFF03460793002309930B
:100ADC0011E0079B5A1C0792089A1340099A92003E
:100AEC0003990A4412680D4902339B000B445A6067
:100AFC00099B01330993099A029B9A42E9D3074B4C
:100B0C0093F81C34002B05D000BF00F063F80346AB
:100B1C00002BFAD100BF0BB05DF804FB20020020C3
:100B2C0000B583B001900091002300220099019838
:100B3C00FFF7B0FF00BF03B05DF804FB00B587B052
:100B4C00039002910192019B059305AA012302993E
:100B5C000398FFF79FFF00BF07B05DF804FB00B5DB
:100B6C0087B00390029101920093019B0493009B28
:100B7C00059304AA022302990398FFF78BFF00BF89
:100B8C0007B05DF804FB00B589B0039002910192A7
:100B9C000093019B0493009B05930A9B06930B9B6C
:100BAC00079304AA042302990398FFF773FF00BF6D
:100BBC0009B05DF804FB0000054B5A68044B1B6838
:100BCC009A420CBF01230023DBB21846704700BFCA
:100BDC002002002000B597B0FFF7EEFF0346002B74
:100BEC0001D000239FE19D4B0022C3F81824BFF3D2
:100BFC004F8F9A4B5B681593984B9B680E93159A85
:100C0C000E9B134002339B00944A134404331493F9
:100C1C00002313930023129300230D931BE0159BC9
:100C2C0001331593149B5B88C3F389139BB21A464B
:100C3C00149B1B88C3F389139BB213441A46159B50
:100C4C0013441593159A0E9B134002339B00834A51
:100C5C00134404331493149B1B7803F00303DBB28B
:100C6C00002BDCD00023119311E0119B9B006A46F2
:100C7C001A44159B591C15910E990B407749023358
:100C8C009B000B445B681360119B01331193119B08
:100C9C00012BEAD99DF8003003F00303DBB2022BE1
:100CAC0040F09C80BDF80230C3F389139BB20C93C7
:100CBC00BDF80230C3F389139BB2502BA8BF50234D
:100CCC000B930B9B9BB2C3F309039AB2BDF8023092
:100CDC0062F38F13ADF802300B9B08330A939DF827
:100CEC000030C3F3C203DBB20D930A995C4801F0E8
:100CFC00D2FF1390139B002B00F0D480139802F0BA
:100D0C005AF86946129B0822139802F0FDF8129BC0
:100D1C0008331293159BDA430E9B134001339B004F
:100D2C0009930B9A099B9A4242D9099B002B08D034
:100D3C00159A0E9B134002339B00484A134404330C
:100D4C0000E0484B0893099B002B02D0099BDBB2B7
:100D5C0001E00B9BDBB28DF81F30099B002B01D0FF
:100D6C00404B00E000230693099B002B06D00B9B05
:100D7C00DAB2099BDBB2D31ADBB200E000238DF8A8
:100D8C0017309DF81F20129B0899139802F0BCF89D
:100D9C009DF81F30129A13441293069B002B16D009
:100DAC009DF81720129B0699139802F0ADF80EE0EF
:100DBC00159A0E9B134002339B00284A13440433AC
:100DCC000493129B0B9A0499139802F09DF80C9BB8
:100DDC0003339B08159A1344159363E09DF8003078
:100DEC0003F00303DBB2012B5CD1BDF80030C3F37D
:100DFC008313DBB2062B28BF0623DBB203F00F03F1
:100E0C00DAB2BDF8003062F38913ADF80030BDF8EA
:100E1C000030C3F38313DBB2023303939DF800302D
:100E2C00C3F3C203DBB20D93039B9B0019460C4822
:100E3C0001F031FF1390139B002B33D0139801F06A
:100E4C00BAFF6946129B0822139802F05DF8129BB8
:100E5C0008331293002311931BE000BF20020020E3
:100E6C00E4B603002C020020159B5A1C15920E9A16
:100E7C00134002339B002E4A1344191D129B04226B
:100E8C00139802F041F8129B04331293119B013317
:100E9C001193BDF80030C3F38313DBB21A46119BD8
:100EAC009A42E1D8139B002B37D0214BD3F8103446
:100EBC0010931F4BD3F81834002B1AD0139801F051
:100ECC0089FF2AE000238DF83F301098FFF779FB5B
:100EDC000346002B02D001238DF83F309DF83F30A4
:100EEC00002B03D013991098FFF736FB109B5B680F
:100EFC001093109B002BE5D1139801F06BFF002091
:100F0C0001F014F90A4BD3F81834002B02D1084A1B
:100F1C00159B5360002001F01DF9FFF74DFE0346B1
:100F2C0083F00103DBB2184617B05DF804FB00BF79
:100F3C002002002000B585B00023039322E0164B5D
:100F4C00D3F81034029301238DF807300EE0029889
:100F5C00FFF728FB03461A46039B9A4203D1002352
:100F6C008DF8073005E0029B5B680293029B002B17
:100F7C00EDD19DF80730002B01D0039B07E0039BBC
:100F8C0001330393039B092BD9DD4FF0FF33184634
:100F9C0005B05DF804FB00BF2002002000B585B051
:100FAC0001900B468DF80330FFF7C4FF0390039BB1
:100FBC00B3F1FF3F01D1039B1EE0039BDBB219464B
:100FCC000198FFF7E3FA0E4BD3F81034002B07D13E
:100FDC000B4A019BC2F81034019B00225A600AE0B4
:100FEC00074BD3F810345A68019B5A60044BD3F862
:100FFC001034019A5A60039B184605B05DF804FB47
:10100C002002002000B583B00C4BD3F810340193B0
:10101C000A4B012283F81C2408E00198FFF7C9FA57
:10102C000198FFF7A7FA019B5B680193019B002BCA
:10103C00F3D100BF03B05DF804FB00BF2002002019
:10104C0010B582B001900091019BDB7983F0010314
:10105C00DBB2002B28D0019B1B7A002B12D0019BFA
:10106C009B881A46019B9B7919461046FFF7A4FBF7
:10107C0003461A460E4B53F822301A460D49009877
:10108C0001F0D0F9019B9B791A460B4B53F8224087
:10109C00019B9B8800211846FFF76EFB03462246F6
:1010AC000649009801F0BEF900BF02B010BD00BFA8
:1010BC005C000020BCB7030048000020C0B7030050
:1010CC0000B585B00390029113468DF80730039B51
:1010DC00DB7983F00103DBB2002B0FD0039B1B7A6F
:1010EC00002B06D00D4B1B681A460D49029801F0D7
:1010FC0099F90C49029801F095F907E09DF8073031
:10110C00002B03D00749029801F08CF9029801F0EA
:10111C0067F900BF05B05DF804FB00BF5C00002060
:10112C00BCB70300CCB7030030B58BB00790069169
:10113C00059204930E9B1B7B8DF827300E9B00228F
:10114C001A730E990498FFF77BFF059B062B7FD82B
:10115C0001A252F823F000BF811100008B11000096
:10116C009B110000AF110000CD110000F511000023
:10117C002512000007990E9801F054F969E0069BBE
:10118C001B681A4607990E9801F04CF961E0069B12
:10119C001A68069B04331B6807990E9801F042F9F4
:1011AC0057E0069B1A68069B04331968069B0833A4
:1011BC001B6800930B4607990E9801F033F948E031
:1011CC00069B1968069B04331868069B08331B683A
:1011DC00069A0C3212680192009303460A4607994C
:1011EC000E9801F01FF934E0069B1868069B043337
:1011FC001C68069B08331B68069A0C321268069909
:10120C001031096802910192009323460246079916
:10121C000E9801F007F91CE0069B1C68069B043332
:10122C001D68069B08331B68069A0C3212680699D7
:10123C0010310968069814300068039002910192ED
:10124C0000932B46224607990E9801F0EBF800E02C
:10125C0000BF00220E990498FFF732FF0E9B9DF8F9
:10126C0027201A7300BF0BB030BD00BF00B587B08C
:10127C000390029101920093029B082B5CD8009B77
:10128C001B7B8DF81330009B00221A730099019878
:10129C00FFF7D6FE0023059314E0059A029B9A42B1
:1012AC0009D2039A059B13441B781A4624490098CB
:1012BC0001F0B8F803E02349009801F0B3F8059B5E
:1012CC0001330593059B072BE7D91F49009801F0C3
:1012DC00A9F80023059322E0059A029B9A4217D2A3
:1012EC00039A059B13441B788DF812309DF812302D
:1012FC00184605F071FB0346002B02D09DF8123006
:10130C0000E02E231A461149009801F08BF803E0F7
:10131C000F49009801F086F8059B01330593059B56
:10132C00072BD9D9012200990198FFF7C9FE009B20
:10133C009DF813201A7300E000BF07B05DF804FBA2
:10134C00D0B70300D8B70300DCB70300E0B7030045
:10135C00E4B7030000B589B0039002910192029B9F
:10136C009BB2ADF81430019B0693039B079305AB1E
:10137C001A46002144F2010000F050F800BF09B0F9
:10138C005DF804FB86B003900291019201238DF865
:10139C0017309DF81730204A039B13601E4A029B9E
:1013AC0053601D4A019B9360039B44F201029342DC
:1013BC0012D044F20202934222D1019B164AD3600E
:1013CC00154BDB681B881A46134B9A61124BDB6872
:1013DC005B68114AD36113E0019B0F4A13610E4BFA
:1013EC001B699B680C4A53610B4B1B691B881A4683
:1013FC00094B9A61084B1B695B68074AD36100BFB4
:10140C0072B600BF9DF81730DBB2002BFAD162B672
:10141C0000BF06B0704700BF4006002030B589B051
:10142C00059004910392FFF7EDFD00BFFFF7D2FB8F
:10143C000346002BFAD1059B44F20102934213D0D0
:10144C0044F2020293422DD1039B0793224B1B883B
:10145C001B0443F00100079B5B681A46079B1B8823
:10146C001E49FFF77CFB28E0039B06931A4B1B8855
:10147C001B0443F00104069B9D68069B9B68184661
:10148C0001F066FD03461946069B5B681A46069BEF
:10149C001B88019300920B462A4611492046FFF700
:1014AC0072FB0AE00C4B1B881B0443F00103049AEB
:1014BC000C491846FFF742FB00BF0B4B1B6803F0AF
:1014CC000103002B00D0FFDE039A04990598FFF767
:1014DC0059FF00BF09B030BD00000020E8B7030081
:1014EC0004B803001CB80300F0ED00E082B0034622
:1014FC008DF8073007499DF907305B099DF80720E7
:10150C0002F01F02012000FA02F241F8232000BF72
:10151C0002B0704700E100E082B003468DF807305E
:10152C0008499DF907305B099DF8072002F01F025E
:10153C00012000FA02F2203341F8232000BF02B050
:10154C00704700BF00E100E082B003468DF8073021
:10155C0008499DF907305B099DF8072002F01F022E
:10156C00012000FA02F2403341F8232000BF02B000
:10157C00704700BF00E100E082B003468DF80730F1
:10158C0008499DF907305B099DF8072002F01F02FE
:10159C00012000FA02F2603341F8232000BF02B0B0
:1015AC00704700BF00E100E082B0034600918DF867
:1015BC0007309DF90730002B0CDA0D499DF80730E8
:1015CC0003F00F03043B009AD2B25201D2B20B4487
:1015DC001A7609E007499DF90730009AD2B25201F8
:1015EC00D2B20B4483F8002300BF02B0704700BF97
:1015FC0000ED00E000E100E084B00190244B039387
:10160C00019B002B40D0234B1A680399019B00BF10
:10161C0000BF00BF00BF00BF00BF00BF00BF8A42B9
:10162C002FD000BF00BF00BF00BF00BF00BF00BF76
:10163C0000BF00BF00BF00BF00BF00BF00BF00BFA6
:10164C0000BF00BF00BF00BF00BF00BF00BF00BF96
:10165C0000BF00BF00BF00BF00BF00BF00BF00BF86
:10166C0000BF00BF00BF00BF00BF00BF00BF00BF76
:10167C0000BF00BF00BF00BF00BF00BF00BF00BF66
:10168C0000BF013BC3D1019300BF04B0704700BF42
:10169C000024F4008800002000B583B00190064AB5
:1016AC00019BC2F8083507211120FFF77DFF00BF11
:1016BC0003B05DF804FB00BF0010014008B50D4BF2
:1016CC004FF48032C3F844230A4B4FF48032C3F8F2
:1016DC0004231120FFF750FF1120FFF707FF054BE4
:1016EC0001221A602F20FFF787FF034B01221A708B
:1016FC0000BF08BD001001407E07002008B5112076
:10170C00FFF70AFF0E4B4FF48032C3F848230C4B03
:10171C004FF48032C3F80823094B01225A602F2062
:10172C00FFF76AFF064B01229A60064B00221A60F3
:10173C002F20FFF761FF044B00221A7000BF08BD79
:10174C0000100140700700207E070020024BD3F8E8
:10175C0004351846704700BF0010014082B001905C
:10176C000091019A009BD31A23F07F43184602B0D4
:10177C007047000082B00190034A019BC2F84035CB
:10178C0000BF02B0704700BF0010014086B001904E
:10179C00284B1B68002B03D1264A019B136045E0A4
:1017AC00019B1A68234B1B681B689A4210D8214B6B
:1017BC001B68204A12681168019A12688A1A1A600A
:1017CC001C4B1A68019BDA611A4A019B13602DE0CD
:1017DC00019B1B680393174B1B680593154B1B68E8
:1017EC00049309E0049B1B68039AD31A0393049B8C
:1017FC000593049BDB690493049B002B04D0049B8E
:10180C001A68039B9A42EDD3049B002B05D0049BD2
:10181C001A68039BD21A049B1A60019B039A1A60E4
:10182C00019B049ADA61059B019ADA6100BF06B04C
:10183C00704700BF6C07002000B587B001902A4BA1
:10184C001B680393284B1B680593059B049308E0C6
:10185C00049A019B9A4208D0049B0593049BDB6974
:10186C000493049B002BF3D100E000BF049B002BDE
:10187C0001D1002333E0059A049B9A4214D11A4BF0
:10188C001B68DB69184A1360174B1B68002B0BD1C4
:10189C00164B01229A60164B00221A60154B01223E
:1018AC001A702F20FFF7A8FE049B1B680293049B61
:1018BC00DA69059BDA61059BDB690493049B002BB9
:1018CC0005D0049B1A68029B1A44049B1A60064BB1
:1018DC001B68039A9A4214BF01230023DBB21846FB
:1018EC0007B05DF804FB00BF6C070020001001403E
:1018FC00700700207F07002008B51120FFF724FE99
:10190C0000BF08BD08B51420FFF71EFE00BF08BDC0
:10191C0000B583B00190019B5B69019A92691046F6
:10192C00984700BF03B05DF804FB000000B585B01C
:10193C002B4B1B68002B4ED000230193FFF706FFA7
:10194C000246284B1B6819461046FFF707FF02900A
:10195C00234B1B6803931DE0039B1A68029B9A425E
:10196C001CD8039B1B68029AD31A0293039B1B6817
:10197C00019A13440193039B0093039BDB6903932C
:10198C00009B1B7C002B05D0009B00221A74009836
:10199C00FFF7BEFF039B002BDED100E000BF124B14
:1019AC001A78124B1B789A420CD1104B1B780133CE
:1019BC00DAB20E4B1A700D4B1B78022B02D10B4B6B
:1019CC0000221A70094B1B781946094A019B42F8F0
:1019DC002130FFF797FF00BF05B05DF804FB00BF97
:1019EC006C070020700700207C0700207D0700207A
:1019FC007407002082B00190184B1A78184B1B7892
:101A0C009A4223D0154B1B780133DAB2134B1A7060
:101A1C00124B1B78022B02D1104B00221A700F4B69
:101A2C001B781A460F4B53F82220019B1A60019B1E
:101A3C001A680D4B1B6813440B4A13600A4B1B6846
:101A4C0023F07F43084A1360012303E0019B00222B
:101A5C001A600023184602B0704700BF7C070020B4
:101A6C007D070020740700207007002088B00390C9
:101A7C00029101920023079338E0204B1B680693D8
:101A8C00069B1A68039B9A4206D9069B1A68039B0D
:101A9C00D21A069B1A602DE0069B1B68039AD31A78
:101AAC000393069B1B68079A13440793069B00221B
:101ABC001A60124B1B680593069BDB690F4A136077
:101ACC00069BDB68002B11D0029A079B134423F072
:101ADC007F42069B5A60069BDA68069B9A60019BC4
:101AEC001A68069BDA61019B059A1A60034B1B6806
:101AFC00002BC2D100BF08B0704700BF6C0700209C
:101B0C0000B589B0019000238DF81F30664B1B681F
:101B1C000593AAE0019B002B05D0019B0693069B25
:101B2C00DB69019361E0614B1B781A4613465B003D
:101B3C001344DB005D4A1344043304935B4B1B7862
:101B4C000133DAB2594B1A70584B1A78574B9B78B1
:101B5C009A4202D1554B00221A70049B5B68069383
:101B6C00049B1B78022B04D0032B1BD0012B1FD002
:101B7C001DE0049B5B681846FFF75EFE0346002BD6
:101B8C0002D001238DF81F30069B00221A746CE0E2
:101B9C00454B1B680393039B00221A74039BDB6960
:101BAC00414A1360404B1B68002BF1D15DE05CE0B7
:101BBC0000BF069B1B7C002B00D056E0049B9A6850
:101BCC00069B5A60049BDA68069B9A60049B1A6910
:101BDC00069BDA60049B5A69069B9A61344B1B780E
:101BEC00002B02D0069B00225A60069B5A68314B90
:101BFC001B68D31A23F07F432F4A93420ED8069BBF
:101C0C005A682C4B1B6819461046FFF7A7FD024675
:101C1C00069B9B681A44069B1A6017E0254B1A68B2
:101C2C00069B5B6819461046FFF798FD0290069BD1
:101C3C009A68029B9A4206D9069B9A68029BD21A12
:101C4C00069B1A6002E0069B00221A60069B00228B
:101C5C005A60069B00229A60069B01221A74069B0E
:101C6C000022DA610698FFF791FD019B002B7FF4AF
:101C7C0051AF0E4B1A780D4B5B789A427FF44AAFFA
:101C8C009DF81F30002B04D1074B1A68059B9A4214
:101C9C0001D0012300E0002303F00103DBB218465E
:101CAC0009B05DF804FB00BF6C0700206006002043
:101CBC007F07002070070020FEFF7F0010B588B062
:101CCC000190274B1B68002B44D0254B1B681B68CD
:101CDC000793FFF73BFD0690224B1B680593059974
:101CEC000698FFF73BFD0346033304931E4B1B780A
:101CFC0083F00103DBB2002B01D0FFF7DFFC049A69
:101D0C00079B934238BF1346059A13440593059BD2
:101D1C0023F07F4305930598FFF72CFDFFF716FD85
:101D2C00039006990398FFF719FD0346DC1C0699EE
:101D3C000598FFF713FD03469C420DD9FFF706FDEE
:101D4C0003461846FFF716FD2F20FFF755FCFFF74B
:101D5C00D3FD01E0FFF7D2FC00BF08B010BD00BFFF
:101D6C006C070020700700207E07002000B587B0AC
:101D7C000023019300238DF81730194B1B68049333
:101D8C00184B1B6803936B461846FFF733FE03464C
:101D9C008DF80B309DF80B30002B08D0009B01AA5E
:101DAC0004991846FFF762FE01238DF81730019B4A
:101DBC001846FFF7A5FE0346002B02D001238DF831
:101DCC0017309DF81730002B02D00398FFF776FFE1
:101DDC00054B00221A7000BF07B05DF804FB00BF72
:101DEC00700700206C0700207F07002082B003469C
:101DFC008DF80730034A9DF80730537000BF02B0CE
:101E0C00704700BF6006002084B00190144B5B78D3
:101E1C0001338DF80F30124B9B789DF80F209A42AE
:101E2C0002D100238DF80F300D4B1B789DF80F203D
:101E3C009A4201D100230FE0019B9DF80F201A70EC
:101E4C00074B5B781A4613465B001344DB00044ACD
:101E5C00134404330293029B184604B0704700BF2E
:101E6C006006002000B589B00390029101920093A6
:101E7C0000230793002000F059F90DF117031846C1
:101E8C00FFF7C2FF0690069B002B02D10423079399
:101E9C0018E0069B01221A70069B039A5A60FFF702
:101EAC0055FC0246069B9A60069B029ADA60069BDA
:101EBC00019A1A61069B009A5A619DF817301846D0
:101ECC00FFF794FF002000F045F9079B002B01D190
:101EDC00FFF718FD079B184609B05DF804FB00B529
:101EEC0087B001900B468DF803300023059300203A
:101EFC0000F01CF90DF10F031846FFF785FF049055
:101F0C00049B002B02D1042305930BE0049B9DF84A
:101F1C0003201A70049B019A5A609DF80F301846E2
:101F2C00FFF764FF002000F015F9059B002B01D191
:101F3C00FFF7E8FC059B184607B05DF804FB0000B2
:101F4C0008B50E4B0022C3F840210C4B0022C3F8FD
:101F5C0044210A4B0022C3F84821084B0022C3F845
:101F6C004C21064B0022C3F80021044B0022C3F87D
:101F7C000421FFF7DBFC00BF08BD00BF00100140CF
:101F8C0008B5FFF7F3FE00BF08BD000008B5FFF76A
:101F9C00B5FB134B00221A70114B00225A70104BD8
:101FAC000B229A700F4B00221A600F4B00221A70F2
:101FBC000E4B00221A701420FFF7DEFA07211420B2
:101FCC00FFF7F2FA1420FFF791FA0020FFF764FBF9
:101FDC00FFF7BCFB0246064B1A600023184608BDEF
:101FEC00600600206C0700207C0700207D07002085
:101FFC007007002086B003900B4601928DF80B30D1
:10200C00134B9B78002B01D108231EE0019B002B66
:10201C0001D1072319E0039B002B01D1072314E006
:10202C00039B1B681B7C002B01D008230DE0039B3A
:10203C001B680593059B00221A74059B9DF80B20C9
:10204C005A74059B019A5A610023184606B07047D2
:10205C006006002000B587B0039002910192039BAB
:10206C000593144B9B78002B01D108231EE0039B96
:10207C00002B01D1082319E0029B042B01D8072364
:10208C0014E0059B5B69002B01D108230EE0059B36
:10209C005B7C012B01D1029B00E000230493019B8C
:1020AC00049A02990598FFF7DDFE0346184607B01F
:1020BC005DF804FB6006002000B585B00190019B23
:1020CC0003930D4B9B78002B01D1082310E0019B4F
:1020DC00002B03D0039B5B69002B01D1082307E085
:1020EC00039B00221A7402210398FFF7F8FE0346A3
:1020FC00184605B05DF804FB6006002072B6034B71
:10210C001B680133014A136000BF70478007002031
:10211C00054B1B68013B044A1360034B1B68002BE7
:10212C0000D162B600BF70478007002000B583B0B5
:10213C00019000F025F80346012B03D004494320FD
:10214C0000F03BF8FFF7DAFF00BF03B05DF804FBCB
:10215C0034B8030000B583B003468DF8073000F0A7
:10216C000FF80346012B03D00449512000F025F849
:10217C00FFF7CEFF00BF03B05DF804FB34B80300DB
:10218C0084B0EFF305830193019BC3F3080303931E
:10219C00039B002B0DD1EFF314830093009B029350
:1021AC00029B03F00103002B0CBF01230023DBB2C5
:1021BC0000E00123184604B0704700B585B0034613
:1021CC000091ADF80630BDF80630ADF80830009B34
:1021DC00039302AB1A46002144F20200FFF71EF9EA
:1021EC0000BF05B05DF804FB00B583B001900B4651
:1021FC008DF80330019B002B03D10849AF20FFF76A
:10220C00DCFF019BDA689DF803300199098A01FB18
:10221C0003F31344184603B05DF804FB78B80300CD
:10222C0000B583B001900091019B002B03D10849AC
:10223C00BC20FFF7C2FF009B019AD2689B1A019A3F
:10224C00128AB3FBF2F3DBB2184603B05DF804FB61
:10225C0078B8030000B585B00190019B002B01D12B
:10226C000E2349E0019B1B68002B03D12449C62097
:10227C00FFF7A3FF019B5B68002B03D12049C7200C
:10228C00FFF79BFF019B9B68002B03D11C49C820C7
:10229C00FFF793FF019BDB68002B03D11849C92082
:1022AC00FFF78BFF019B1B8A002B03D11449CA201B
:1022BC00FFF783FF019B9B681A46019B5B68D31A4F
:1022CC008DF80F30019B1B68019A52681A6007E069
:1022DC00019B1A681368591C11609DF80F201A7025
:1022EC009DF80F305A1E8DF80F20002BF0D1019B5A
:1022FC001B6800221A710023184605B05DF804FB18
:10230C0078B8030000B585B00190019B002B03D178
:10231C001C49EC20FFF751FF002303930020FFF72B
:10232C0005FF019B1B681A68019B5B689A4220D9C8
:10233C00019B1B681A68013A1A601B681B781946C6
:10234C000198FFF751FF0390019B9B681A46019B74
:10235C001B681B68D31A8DF80B30019B1B681B790B
:10236C009DF80B209A4204D9019B1B689DF80B2009
:10237C001A710020FFF7EEFE039B184605B05DF8BE
:10238C0004FB00BF78B8030010B584B00190009135
:10239C00019B002B04D111494FF48870FFF70DFFFE
:1023AC00009B002B04D10D4940F21110FFF705FFE3
:1023BC00009B03930020FFF7B9FE019B1B681C6870
:1023CC00621C1A6003990198FFF72AFF03462370D9
:1023DC000020FFF7BFFE00BF04B010BD78B80300AB
:1023EC0000B583B00190019B002B03D10C49312027
:1023FC00FFF7E3FE019B9B68002B0CD0019B5B69F4
:10240C00019A1069019A1168019A92689847019B88
:10241C0000229A6000E000BF03B05DF804FB00BF2F
:10242C00B0B803000EB400B584B00190019B002B32
:10243C0003D118494220FFF7C0FE019B5B69002BBA
:10244C0003D114494320FFF7B8FE019B1B68002BF6
:10245C0003D110494420FFF7B0FE019B5B68002BB1
:10246C0003D10C494520FFF7A8FE059B002B0AD091
:10247C000023039306AB039303AB1A46059901980B
:10248C0000F0B0F900E000BF04B05DF804EB03B05D
:10249C00704700BFB0B8030000B583B001900B4685
:1024AC008DF80330019B1A68019B9B68581C01999D
:1024BC00886013449DF803201A70019B9A68019B55
:1024CC005B689A4202D30198FFF78AFF00BF03B002
:1024DC005DF804FB00B587B0039002910192009364
:1024EC0000230593009B03F00103002B24D00BE089
:1024FC00029B01330293059B013305939DF8133026
:10250C0019460398FFF7C8FF029B1B788DF8133010
:10251C009DF81330002BEBD106E0019B013B01939E
:10252C0020210398FFF7B8FF019A059B9A422ED9F8
:10253C00019B002BF1D12AE0029B002B0BD00298BF
:10254C0004F0FAFC059006E0019B013B019320216D
:10255C000398FFF7A1FF019A059B9A420FD9019BA3
:10256C00002BF1D10BE0029B01330293059B01334D
:10257C0005939DF8133019460398FFF78DFF029BC6
:10258C001B788DF813309DF81330002BEBD100BF66
:10259C0007B05DF804FB000000B589B00390029110
:1025AC0001920093029B07930123069307E0079A7D
:1025BC00019BB2FBF3F30793069B01330693079A37
:1025CC00019B9A42F3D2009A069B9A4201D9009B36
:1025DC0006930B9B03F00103002B22D10A9B002BCB
:1025EC001FD00B9B03F00203002B06D0009B002B8B
:1025FC0003D130238DF8173002E020238DF81730EB
:10260C0008E00A9B013B0A939DF817301946039882
:10261C00FFF742FF0A9B002B03D0069A0A9B9A42B3
:10262C00EFD301230793009B012B03D9009B013BA4
:10263C00009309E0029A079BB2FBF3F30493049A0C
:10264C00019B9A4200D205E0079B019A02FB03F31F
:10265C000793E8E7029A079BB2FBF3F30493049BFE
:10266C00079A02FB03F3029AD31A0293154A049BAE
:10267C0013441B7819460398FFF70EFF079A019B2A
:10268C00B2FBF3F30793079B002BE3D10B9B03F0F7
:10269C000103002B11D00A9B002B0ED006E00A9BE5
:1026AC00013B0A9320210398FFF7F6FE0A9B002BAF
:1026BC0003D0069A0A9B9A42F1D300BF09B05DF889
:1026CC0004FB00BF10B9030000B589B0059004915C
:1026DC0003920293049B002BB8BF5B420693012329
:1026EC00079307E0039B069A92FBF3F30693079B71
:1026FC0001330793039B069A9A42F3DA029A079BDB
:10270C009A4201D9029B07930A9B002B0AD0049B87
:10271C00002B04DB0B9B03F00403002B02D00A9B61
:10272C00013B0A930B9B03F00203002B02D0029B8C
:10273C00002B16D00B9B03F00103002B11D10A9B2D
:10274C00002B0ED006E00A9B013B0A932021059832
:10275C00FFF7A2FE0A9B002B03D0079A0A9B9A4212
:10276C00F1D3049B002B07DA049B5B4204932D21CD
:10277C000598FFF791FE08E00B9B03F00403002B78
:10278C0003D02B210598FFF787FE0B9B03F0020368
:10279C00002B19D00B9B03F00103002B14D1029BCF
:1027AC00002B11D10A9B002B0ED006E00A9B013B9B
:1027BC000A9330210598FFF76FFE0A9B002B03D07C
:1027CC00079A0A9B9A42F1D304990B9B01930A9B9B
:1027DC000093029B039A0598FFF7DEFE00BF09B039
:1027EC005DF804FB00B58FB0059004910392059B36
:1027FC00002B04D1C8494FF49F70FFF7DEFC059BFA
:10280C005B69002B04D1C4494FF4A070FFF7D5FCD1
:10281C00059B1B68002B04D1BF4940F24110FFF708
:10282C00CCFC059B5B68002B04D1BB494FF4A17019
:10283C00FFF7C3FC049B002B00F0ED81049B1B787D
:10284C008DF83730049B013304939DF83730002BFF
:10285C0000F0D8819DF83730252B40F0C78100233C
:10286C000A9301230C93049B1B788DF837309DF849
:10287C0037302D2B04D0302B0AD02B2B10D017E057
:10288C000A9B43F001030A93049B0133049312E067
:10289C000A9B43F002030A93049B013304930AE05E
:1028AC000A9B43F004030A93049B0133049302E054
:1028BC0000230C9300BF0C9B002BD4D10023099355
:1028CC009DF837302A2B0CD1039B1B68191D039ADA
:1028DC0011601B68099A13440993049B01330493F8
:1028EC001AE0049B1B788DF837309DF837302F2B6E
:1028FC0012D99DF83730392B0ED8049B0133049331
:10290C00099A13469B0013445B001A469DF8373016
:10291C001344303B0993D3E700230B93049B1B78A0
:10292C008DF837309DF837302E2B1DD1049B013399
:10293C000493049B1B788DF837309DF837302F2B80
:10294C0012D99DF83730392B0ED8049B01330493E0
:10295C000B9A13469B0013445B001A469DF83730C4
:10296C001344303B0B93E4E7049B1B788DF8373012
:10297C009DF837306C2B03D09DF83730682B07D17E
:10298C00049B01330493049B1B788DF83730EFE7DD
:10299C009DF83730253B532B00F2238101A252F8CE
:1029AC0023F000BFE52B0000EF2B0000EF2B000005
:1029BC00EF2B0000EF2B0000EF2B0000EF2B0000A3
:1029CC00EF2B0000EF2B0000EF2B0000EF2B000093
:1029DC00EF2B0000EF2B0000EF2B0000EF2B000083
:1029EC00EF2B0000EF2B0000EF2B0000EF2B000073
:1029FC00EF2B0000EF2B0000EF2B0000EF2B000063
:102A0C00EF2B0000EF2B0000EF2B0000EF2B000052
:102A1C00EF2B0000EF2B0000EF2B0000EF2B000042
:102A2C00EF2B0000EF2B0000EF2B0000EF2B000032
:102A3C00EF2B0000EF2B0000EF2B0000EF2B000022
:102A4C00EF2B0000EF2B0000EF2B0000EF2B000012
:102A5C00EF2B0000EF2B0000EF2B0000EF2B000002
:102A6C00EF2B0000EF2B0000EF2B0000EF2B0000F2
:102A7C00712B0000EF2B0000EF2B0000EF2B000060
:102A8C00EF2B0000EF2B0000EF2B0000EF2B0000D2
:102A9C00EF2B0000EF2B0000EF2B0000012B0000B0
:102AAC00292B0000EF2B0000EF2B0000EF2B000078
:102ABC00EF2B0000292B0000EF2B0000EF2B000068
:102ACC00EF2B0000EF2B0000EF2B0000EF2B000092
:102ADC00B12B0000EF2B0000EF2B0000952B00001A
:102AEC00EF2B00004D2B0000EF2B0000EF2B000014
:102AFC00712B0000039B1B68191D039A11601B6846
:102B0C000C930C9B8DF823309DF8233019460598B7
:102B1C00FFF7C2FC66E000BFDCB80300039B1B6838
:102B2C00191D039A11601B680C930A9B0193099B56
:102B3C0000930B9B0A220C990598FFF7C5FD51E0F9
:102B4C00039B1B68191D039A11601B680C930C994D
:102B5C000A9B0193099B00930B9B0A220598FFF794
:102B6C001BFD3FE0039B1B68191D039A11601B683A
:102B7C000C930C990A9B0193099B00930B9B1022BD
:102B8C000598FFF709FD2DE0039B1B68191D039A9F
:102B9C0011601B6807930A9B099A07990598FFF720
:102BAC0099FC1FE0039B1B68191D039A11601B689D
:102BBC000C9330210598FFF76FFC78210598FFF7EF
:102BCC006BFC0C990023019308230093082310221B
:102BDC000598FFF7E1FC05E025210598FFF75CFC63
:102BEC0000E000BF049B0133049305E09DF83730EF
:102BFC0019460598FFF750FC049B1B78002B7FF4BB
:102C0C001DAE00E000BF059B1B7B002B04D005987C
:102C1C00FFF7E6FB00E000BF0FB05DF804FB00BF60
:102C2C0010B487B001900091019B009A53E8004FBB
:102C3C0004EB020043E8000191F0000FF6D105947B
:102C4C0004900391049B184607B05DF8044B704741
:102C5C0010B487B001900091019B009A53E8004F8B
:102C6C00A4EB020043E8000191F0000FF6D10594AB
:102C7C0004900391049B184607B05DF8044B704711
:102C8C0000B583B001900198FFF7E4FA03461846AB
:102C9C0003B05DF804FB00B58BB001900091019B73
:102CAC001B8A043B0793009A079B1344DA1C079B6F
:102CBC00B2FBF3F38DF81B300198FFF723FB059063
:102CCC00059B002B01D1002338E0059B00221A71D3
:102CDC00059B01225A71079B9AB2059BDA80059BD2
:102CEC0009939DF81B30013B0493099B019A1A60D0
:102CFC00002308931DE00198FFF704FB0390039B4E
:102D0C00002B0ED0059B5B790133DAB2059B5A710F
:102D1C00099B039A1A60039B019A1A60039B0993FF
:102D2C0004E0059800F00EF8002307E0089B01333F
:102D3C000893089A049B9A42DDD3059B18460BB066
:102D4C005DF804FB00B58BB00190019B0793079BCA
:102D5C005B798DF81B30019B08939DF81B30013B70
:102D6C0005930023099305E0089B1B680893099BB6
:102D7C0001330993099A059B9A42F5D3089B1B686A
:102D8C000493019B0893002309930BE0089B1B6899
:102D9C00039308990498FFF7F7FA039B0893099B90
:102DAC00013309939DF81B20099B9A42EED800BF72
:102DBC000BB05DF804FB00B585B00190019B03934B
:102DCC00039B043301211846FFF72AFF00BF05B00F
:102DDC005DF804FB00B587B00190019B0593059B42
:102DEC00043301211846FFF733FF0346039303AB6B
:102DFC000493049B1B78002B02D10198FFF7A2FFD0
:102E0C0000BF07B05DF804FB00B58DB003900291D4
:102E1C0001920093039B0693069BDB880593039B0F
:102E2C000B93009B1A1D059BB2FBF3F30A93009BBB
:102E3C000433059AB3FBF2F2059901FB02F29B1ADB
:102E4C000993009A019B1A44059B1344DA1C059BB9
:102E5C00B2FBF3F38DF81330069B5B799DF81320CE
:102E6C009A420AD92749BA20FFF7A7F905E00B9B2C
:102E7C001B680B930A9B013B0A930A9B002BF6D110
:102E8C0000230893059A099BD31A0793079A019B71
:102E9C00934228BF134607932DE09DF83830002B42
:102EAC000BD0029A089BD0180B9A099B134404333D
:102EBC00079A194603F098FF0AE00B9A099B1344F2
:102ECC00181D029A089B1344079A194603F08CFFAD
:102EDC00002309930B9B1B680B93019A079BD31A36
:102EEC000193089A079B13440893059A019B9342FC
:102EFC0028BF13460793019B002BCED100BF0DB00A
:102F0C005DF804FB20B9030000B587B0059004916F
:102F1C000392029300230093029B039A0499059851
:102F2C00FFF772FF00BF07B05DF804FB00B587B078
:102F3C00059004910392029301230093029B039A40
:102F4C0004990598FFF760FF00BF07B05DF804FB1C
:102F5C0000B585B00190019800F00EF80390039B2A
:102F6C00002B01D0039B00E0024B184605B05DF826
:102F7C0004FB00BF64B9030086B00190164B0593A7
:102F8C00164B04931FE0049A059BD31ADB10DA0F3F
:102F9C0013445B10DB00059A13440393039B1B68DB
:102FAC000293029A019B9A4202D9039B04930AE072
:102FBC00029A019B9A4203D2039B0833059302E0C9
:102FCC00039B5B6804E0059A049B9A42DBD30023C5
:102FDC00184606B0704700BF80BC030070BD0300EC
:102FEC0084B00190019B9B680393019BDA68039B5F
:102FFC00D31A184604B0704700B587B00190009101
:10300C00019B1B78012B04D0022B38D0002B47D00E
:10301C005CE0019B5B681B7819462E4800F0A5F913
:10302C000590059B002B0AD001238DF80C30059BD5
:10303C000493294B1B6803AA104698470DE02548BA
:10304C00FFF7CEFF0346002B07D000238DF80C3082
:10305C00214B1B6803AA104698471E48FFF7C0FF78
:10306C0002461C4B9B889A4205D801221B491C48DE
:10307C0001F0A6FE2AE01B4B01221A7026E0022367
:10308C008DF80C30019BDB68049301221349144822
:10309C0001F096FE104B1B6803AA1046984715E0EA
:1030AC001149124800F07CF90346002B05D101228E
:1030BC000D490B4801F07AFC07E003238DF80C3026
:1030CC00054B1B6803AA1046984700BF00BF07B00A
:1030DC005DF804FB90070020840700208C0700207B
:1030EC00800000208D07002088070020A00700200A
:1030FC0030B58FB00390029101928DF803303E4AA7
:10310C00019B1360029B002B01D1072371E0029BF2
:10311C001968029B5B689BB21A46384800F0F9F8B4
:10312C000D900D9B002B01D00D9B62E0029B9968CA
:10313C00029BDB689BB21A46314800F0EAF80D900E
:10314C000D9B002B01D00D9B53E02E4B05AC1D4667
:10315C000FCD0FC495E80F0084E80F00039B5B694B
:10316C000B93039B1B7C002B14BF01230023DBB2AE
:10317C008DF828309DF803308DF83030039B5B7C44
:10318C00002B01D00E2300E000238DF82930039B87
:10319C00DB680793039B9B680893039B1B68069350
:1031AC00039B5B68059305AB174A1946174801F05A
:1031BC00B7FA0D900D9B002B01D00D9B19E0144B11
:1031CC0000221A70039B1B68B3F1FF3F10D09DF8CF
:1031DC00313083F00103DBB2002B02D00B4801F03D
:1031EC00B3FE01220B49094801F0EAFD034600E059
:1031FC00002318460FB030BD840700209007002034
:10320C00A007002070BD03000530000080000020E6
:10321C008D0700208C07002000B585B003468DF883
:10322C0007309DF807301946104800F09EF80390BF
:10323C00039B002B15D10E4801F024FC034683F0B0
:10324C000103DBB2002B0CD00A49084800F0A8F8A7
:10325C000346002B05D101220649054801F0A6FBC7
:10326C000390039B184605B05DF804FBA0070020F3
:10327C00800000208807002084B00190019B9B688F
:10328C000393019BDA68039BD31A184604B070476A
:10329C0082B001900B468DF80330019B1A68019B9C
:1032AC00DB68019989880B4013449DF803201A7040
:1032BC00019BDB685A1C019BDA6000BF02B07047AF
:1032CC0084B003900B460192ADF80A30039B1A6848
:1032DC00039B9968BDF80A300B44039989880B400D
:1032EC0013441A78019B1A7000BF04B0704700B5E4
:1032FC0083B001900091009A00210198FFF7E0FF44
:10330C00019B9B685A1C019B9A6000BF03B05DF83F
:10331C0004FB84B0039002911346ADF80630029B77
:10332C00002B01D10E231DE0BDF80630002B07D079
:10333C00BDF806305A1EBDF806301340002B01D0E4
:10334C0009230FE0039B029A1A60BDF80630013B7B
:10335C009AB2039B9A80039B00229A60039B0022E3
:10336C00DA600023184604B0704700B583B00190B2
:10337C000B468DF803300198FFF77EFF0246019B48
:10338C009B889A4207D89DF8033019460198FFF79D
:10339C007FFF002300E00423184603B05DF804FB14
:1033AC0000B583B0019000910198FFF765FF0346CB
:1033BC00002B05D000990198FFF799FF002300E03E
:1033CC000523184603B05DF804FB82B001904FF062
:1033DC008042019BC2F8043300BF02B0704782B038
:1033EC0001904FF08042019BC2F8083300BF02B03D
:1033FC00704782B003468DF807309DF8073003F113
:10340C00804301221A6000BF02B0704784B00346AB
:10341C00ADF80630BDF8063003F1804300221A6087
:10342C00BDF8063003F180431B680393039B00BF78
:10343C0004B0704782B00346ADF80630BDF80630D4
:10344C0003F180431B68002B14BF01230023DBB264
:10345C00184602B0704782B003468DF807304FF023
:10346C0080429DF8073003F00303C2F8183500BF03
:10347C0002B070474FF08043D3F818341B0C03F0A4
:10348C000103002B14BF01230023DBB21846704745
:10349C0082B003468DF807304FF08043D3F80C34DC
:1034AC0003F001129DF8073043F480339A420CBFAD
:1034BC0001230023DBB2184602B0704782B00346EA
:1034CC008DF807300A4A9DF907305B0952F8232022
:1034DC009DF8073003F01F03012101FA03F3134099
:1034EC00002B14BF01230023DBB2184602B0704737
:1034FC0000E100E008B50020FFF7E0FF034683F091
:10350C000103DBB2002B03D00721002000F0E6F909
:10351C0000BF08BD08B54FF48270FFF777FF02209B
:10352C00FFF753FF0820FFF764FF00BF08BD000042
:10353C0008B50C20FFF75DFF00BFFFF79BFF0346AC
:10354C00002BFAD1024B00229A7000BF08BD00BFBD
:10355C00B007002008B50420FFF74BFF00BF012087
:10356C00FFF796FF0346002BF9D1024B00225A704D
:10357C0000BF08BDB007002000B583B00023019345
:10358C000F4B1B78002B02D08523019313E00C4BBF
:10359C0000229A600A4B00225A60094B00221A61E1
:1035AC00074B0022DA60FFF7A5FF0120FFF753FF5E
:1035BC00034B01221A70019B184603B05DF804FB03
:1035CC00B007002084B001900091019B1B6803930D
:1035DC0006E0039A009B9A420DD0039B1B68039351
:1035EC00039B002BF5D1019B1A68009B1A60019B71
:1035FC00009A1A6000E000BF04B0704784B00190DC
:10360C00019B1B680393039B002B03D0039B1A683D
:10361C00019B1A60039B184604B0704700B583B039
:10362C000190224B1B78002B03D12149FC20FEF783
:10363C00C4FD1E4B9B78DBB2002B12D0019B002BE0
:10364C0003D0019B5B68012098470020FEF76EFDBC
:10365C00164BDB680133154AD3600020FEF77AFD68
:10366C0017E00020FEF762FD019B002B03D00199AF
:10367C001048FFF7A7FF0D4BDB68002B01D1FFF7BC
:10368C0049FF0A4BDB680133084AD3600020FEF780
:10369C0061FD064BDB68002B04D105494FF48C709F
:1036AC00FEF78BFD00BF03B05DF804FBB0070020F4
:1036BC00D0BD0300C007002008B5124B1B78002BAF
:1036CC0004D1114940F21D10FEF777FD0D4BDB685C
:1036DC00002B04D10C494FF48F70FEF76EFD0020C7
:1036EC00FEF724FD074BDB68013B064AD360054B14
:1036FC00DB68002B01D1FFF71BFF0020FEF72AFD32
:10370C0000BF08BDB0070020D0BD030008B5074BB3
:10371C001B78002B04D1064940F22B10FEF74DFD0F
:10372C00FFF7A8FE0346184608BD00BFB0070020EF
:10373C00D0BD030008B5124B1B78002B04D11149E6
:10374C004FF4AD70FEF739FD0D4B5B68002B04D1C7
:10375C000C4940F25B10FEF730FD0020FEF7E6FC52
:10376C00074B5B68013B064A5360054B5B68002BBB
:10377C0001D1FFF7EFFE0020FEF7ECFC00BF08BD07
:10378C00B0070020D0BD030000B585B003468DF80E
:10379C0007309DF80730002B02D10C4B039301E04E
:1037AC000B4B03930398FFF729FF0290029B002B0E
:1037BC0006D0029B5B689DF8072010469847F1E7FE
:1037CC0000BF00BF05B05DF804FB00BFB8070020C8
:1037DC00C007002008B54FF48070FFF72BFE03469E
:1037EC00002B0CD04FF48070FFF710FE0120FFF778
:1037FC00F6FD0E4B01225A700020FFF7C5FF4FF467
:10380C008270FFF717FE0346002B0CD04FF482702A
:10381C00FFF7FCFD0220FFF7E2FD044B01229A703A
:10382C000120FFF7B1FF00BF08BD00BFB0070020AB
:10383C0082B003468DF8073007499DF907305B09C4
:10384C009DF8072002F01F02012000FA02F241F855
:10385C00232000BF02B0704700E100E082B00346B5
:10386C008DF8073008499DF907305B099DF8072052
:10387C0002F01F02012000FA02F2603341F823200B
:10388C0000BF02B0704700BF00E100E082B0034609
:10389C0000918DF807309DF90730002B0CDA0D499B
:1038AC009DF8073003F00F03043B009AD2B252018B
:1038BC00D2B20B441A7609E007499DF90730009AF9
:1038CC00D2B25201D2B20B4483F8002300BF02B033
:1038DC00704700BF00ED00E000E100E000B583B0F0
:1038EC0003460A468DF8073013468DF806309DF8CE
:1038FC000630072B04D90D494FF49270FEF75DFC8E
:10390C009DF806209DF9073011461846FFF7BEFFBB
:10391C009DF907301846FFF7A1FF9DF907301846AF
:10392C00FFF786FF00BF03B05DF804FB0CBE03007D
:10393C0000B583B00346ADF80630BDF80630184626
:10394C0000F026F803461B68012B0CBF0123002353
:10395C00DBB2184603B05DF804FB00B585B0034636
:10396C00ADF80630BDF80630184600F011F80346E5
:10397C001A4600231360BDF80630184600F008F80C
:10398C0003461B680393039B00BF05B05DF804FB63
:10399C0082B00346ADF80630BDF8063003F1804323
:1039AC0003F5C043184602B07047000082B0019086
:1039BC00034BD3F80423019B1340184602B0704705
:1039CC000060004082B00190054A019B03F5A27390
:1039DC0052F823301B0A03F03F03184602B070471D
:1039EC000060004082B00190064A019B03F5A2736F
:1039FC0052F823301B0C03F00303DBB2184602B061
:103A0C00704700BF0060004000B583B00190019B7F
:103A1C001B682F2B04D90B494FF4E870FEF7CDFB34
:103A2C00019B1B681F2B02D84FF0A04306E0019BA3
:103A3C001B6803F01F02019B1A60034B184603B06E
:103A4C005DF804FB48BE03000003005000B585B0D0
:103A5C0001900B468DF8033001AB1846FFF7D4FFED
:103A6C000390019A0199039B01F5E07153F8213001
:103A7C0023F44031039B02F5E07243F82210019AC3
:103A8C000199039B01F5E07153F821309DF8031067
:103A9C0009041943039B02F5E07243F8221000BF9E
:103AAC0005B05DF804FB00B585B0019001AB18467C
:103ABC00FFF7AAFF0390019A039B02F5E07253F8FB
:103ACC0022301B0C03F00303DBB2184605B05DF883
:103ADC0004FB82B00190019BD3F81035184602B05C
:103AEC007047000000B589B0039002910192174A0B
:103AFC0005AB92E8030083E80300039A029B13448E
:103B0C00022B04D912494FF43A70FEF756FB039B73
:103B1C00079311E0079B9B0008AA134453F80C3C35
:103B2C001846FFF7D6FF0246019B1A60019B04332F
:103B3C000193079B01330793039A029B1A44079B3B
:103B4C009A42E7D800BF09B05DF804FB7CBE0300C5
:103B5C0048BE030084B001900091009B0393019B2D
:103B6C00DB080293019B03F0070301930122019BE5
:103B7C0002FA03F30399029A0A4412781340184686
:103B8C0004B0704784B001900091009B0393019B9B
:103B9C00DB080293019B03F007030193039A029B3A
:103BAC0013440399029A0A44127851B20120019AE3
:103BBC0000FA02F252B20A4352B2D2B21A7000BFE9
:103BCC0004B0704782B00190044A019B1344303317
:103BDC0093F90030184602B0704700BFC4070020AC
:103BEC0082B00190034A019B52F82330184602B070
:103BFC00704700BFC407002000B599B0002317938D
:103C0C0006AB00221A605A604FF48073ADF8563040
:103C1C00012314930023169321E0BDF85630184667
:103C2C00FFF786FE0346002B0ED01498FFF7BEFE5E
:103C3C000346002B08D0BDF856301846FFF78DFE12
:103C4C00179A149B13431793149B5B001493BDF8A2
:103C5C0056300433ADF85630169B01331693169B31
:103C6C00072BDAD94FF4BE70FFF762FE0346002B28
:103C7C000DD04FF4BE70FFF770FE179B43F000435E
:103C8C00179306AB1A4602210020FFF72BFF179B58
:103C9C00DBB2002B29D0012314930023169321E0CF
:103CAC00149A179B1340002B16D01698FFF78AFE18
:103CBC0011901698FFF796FE03468DF84330169830
:103CCC00FFF78EFF0F900F9B002B05D09DF8432024
:103CDC000F9B114611989847149B5B001493169BED
:103CEC0001331693169B072BDAD9179B002B80F206
:103CFC00F08000238DF84B3004AB00221A605A6020
:103D0C00002313930AE0139B9B0018AA13444FF053
:103D1C00FF3243F8582C139B01331393139B012B45
:103D2C00F1D900238DF84B300023169378E06B4AC1
:103D3C00169B1344603393F900308DF83B309DF89B
:103D4C003B3023F0C0030D93644A169B134460333D
:103D5C0093F90030B3F1FF3F5FD002AB19460D98D9
:103D6C00FFF7F8FE0346002B57D09DF83B309B091C
:103D7C008DF833300D98FFF725FF03461846FFF7F3
:103D8C002FFF0B900B9B002B03D19DF83330032B93
:103D9C0043D19DF83330032B04D104AB19460D9855
:103DAC00FFF7F0FE0D98FFF77EFE03468DF82B30E3
:103DBC0006AB19460D98FFF7CDFE0990099B002B19
:103DCC0003D09DF82B30022B06D0099B002B24D15D
:103DDC009DF82B30032B20D19DF83330032B13D1BE
:103DEC009DF82B30022B01D1032300E002238DF828
:103DFC0023309DF8233019460D98FFF727FE9DF8C8
:103E0C004B3001338DF84B300B9B002B05D09DF8BC
:103E1C0033200B9B11460D989847169B0133169334
:103E2C00169B032B83D99DF84B30002B4CD00123D0
:103E3C008DF84A306B461A4602210020FFF752FEDD
:103E4C000023139314E0139B9B0018AA134453F8FC
:103E5C00602C139B9B0018A90B4453F8483C9A42C6
:103E6C0003D000238DF84A3005E0139B01331393E4
:103E7C00139B012BE7D99DF84A30002B03D000236C
:103E8C008DF84B3020E0002313931AE0139B9B001A
:103E9C0018AA134453F8602C139B9B0018A90B44CD
:103EAC0043F8482C139B9B0018AA134453F8502C2E
:103EBC00139B9B0018A90B4443F8582C139B0133FC
:103ECC001393139B012BE1D99DF84B30002B7FF4FE
:103EDC0028AF00BF19B05DF804FB00BFC407002079
:103EEC0000BF034BD3F80034002BFAD000BF70474F
:103EFC0000E0014000B583B001900D4B0222C3F8E5
:103F0C000425BFF36F8FBFF34F8F094A019BC2F893
:103F1C000835FFF7E5FF064B0022C3F80425BFF375
:103F2C006F8FBFF34F8F00BF03B05DF804FB00BF72
:103F3C0000E0014000B587B001900B468DF80330CE
:103F4C00019B03F003030593059BDA43019B13408C
:103F5C000493049B1A68059BDB00FF2101FA03F311
:103F6C00DB43134003939DF80320059BDB0002FA0F
:103F7C0003F3039A134403930C4B0122C3F8042557
:103F8C00BFF36F8FBFF34F8F049B039A1A60FFF739
:103F9C00A7FF064B0022C3F80425BFF36F8FBFF3B6
:103FAC004F8F00BF07B05DF804FB00BF00E001407D
:103FBC0000B587B0039002910192002305930CE0A9
:103FCC00039A059BD018029A059B13441B7819463B
:103FDC00FFF7B0FF059B01330593059A019B9A42AD
:103FEC00EED300BF07B05DF804FB84B001900B4624
:103FFC00ADF80230BDF80230019A134400221A6069
:10400C00BDF80230019A13441B680393039B00BF55
:10401C0004B0704782B001900B46ADF80230BDF889
:10402C000230019A13441B68002B14BF0123002398
:10403C00DBB2184602B0704782B001900091019B30
:10404C00009AC3F8042300BF02B0704782B00190FD
:10405C000091019BD3F80423009B1340002B14BF49
:10406C0001230023DBB2184602B0704782B00190E6
:10407C000091019B009AC3F8082300BF02B070475F
:10408C0084B00190019BD3F880340393019B039A75
:10409C00C3F88024039B184604B0704782B001908B
:1040AC00019B0422C3F8002500BF02B0704784B006
:1040BC00039002910192039B019AC3F81425039B70
:1040CC00029AC3F80C2500BF04B0704784B003906B
:1040DC0002910192039B029AC3F80825039B019A53
:1040EC00C3F8102500BF04B0704782B00190019B4B
:1040FC00D3F81835DBB2184602B0704782B0019085
:10410C000B468DF803309DF80320019BC3F81C254A
:10411C0000BF02B0704782B001900B468DF803309F
:10412C009DF80330019A134401221A6000BF02B0BB
:10413C00704782B001900B468DF8033013468DF812
:10414C0002309DF803209DF802301343DBB21A466F
:10415C00019BC3F86C2500BF02B0704782B0019080
:10416C000091019B009AC3F8242500BF02B0704750
:10417C0084B001900B46ADF80230BDF80230019AC4
:10418C00134400221A60BDF80230019A13441B68D4
:10419C000393039B00BF04B0704782B001900B46A1
:1041AC00ADF80230BDF80230019A13441B68002BA5
:1041BC0014BF01230023DBB2184602B0704782B053
:1041CC0001900091019BD3F80022009B1A43019BA4
:1041DC00C3F8002200BF02B0704782B0019000917A
:1041EC00019BD3F80022009BDB431A40019BC3F8D0
:1041FC00002200BF02B0704782B001900091019B79
:10420C00009AC3F8042300BF02B0704782B001903B
:10421C000091019B009AC3F8082300BF02B07047BD
:10422C0084B00190019BD3F880340393019B039AD3
:10423C00C3F88024039B184604B0704782B00190E9
:10424C00019B0822C3F8002500BF02B0704784B060
:10425C00039002910192039B029AC3F80C25039BD5
:10426C00019AC3F8142500BF04B0704784B00390C2
:10427C0002910192039B029AC3F80825039B019AB1
:10428C00C3F8102500BF04B0704782B001900B46F4
:10429C008DF803309DF80330019A134401221A6003
:1042AC0000BF02B0704782B001900B468DF803300E
:1042BC0013468DF802309DF803209DF8023013430D
:1042CC00DBB21A46019BC3F86C2500BF02B07047E5
:1042DC0082B001900091019B009AC3F8242500BF85
:1042EC0002B0704784B00390029113468DF80730EA
:1042FC00029A039BC3F844259DF80720039BC3F83F
:10430C00482500BF04B0704782B00190019BD3F8E0
:10431C004C35184602B0704784B003900291134696
:10432C008DF80730029A039BC3F834259DF80720BB
:10433C00039BC3F8382500BF04B0704782B00190CE
:10434C00019BD3F83C35184602B0704784B00190FD
:10435C00019B1B0B8DF80F309DF90F30184604B0E4
:10436C00704782B00190019B03F06043B3F1005F92
:10437C000CBF01230023DBB2184602B070470000CB
:10438C0000B583B00190019B1B682F2B04D90B49FE
:10439C004FF4E870FDF711FF019B1B681F2B02D82F
:1043AC004FF0A04306E0019B1B6803F01F02019B2A
:1043BC001A60034B184603B05DF804FBC8BE03003B
:1043CC000003005000B585B00190084611461A460E
:1043DC0003468DF803300B468DF8023013468DF8EA
:1043EC00013001AB1846FFF7CBFF0390019A9DF803
:1043FC0003109DF802305B0019439DF801309B00BF
:10440C0019439DF818301B0219439DF81C301B04EE
:10441C001943039B02F5E07243F8221000BF05B06C
:10442C005DF804FB00B585B00390002301930023D5
:10443C0000930023012201210398FFF7C3FF00BF63
:10444C0005B05DF804FB00B585B003900B468DF804
:10445C000B309DF80B20002301930023009313468F
:10446C00002200210398FFF7ADFF00BF05B05DF8F7
:10447C0004FB00B585B0019001AB1846FFF780FF37
:10448C000390019B012202FA03F31946039800F0F2
:10449C0004F800BF05B05DF804FB82B001900091F8
:1044AC00019B009AC3F8082500BF02B070470000BA
:1044BC0000B583B001900091009B1B68B3F1FF3FE6
:1044CC0009D0009B1B681846FFF7D3FF009B1B68A5
:1044DC001846FFF7A7FF009B5B68B3F1FF3F05D0C1
:1044EC00009B5B6800211846FFF7ADFF019B1B7911
:1044FC00464A5B0113441C331B78002B41D0019BB3
:10450C001A68009B9B6919461046FFF7E1FE019B58
:10451C001868009B597D009B1B7D1A46FFF7C3FE54
:10452C00019B1868009B1968009B5B681A46FFF793
:10453C008EFE009B1B7D012B64D1009B9B68B3F10D
:10454C00FF3F05D0009B9B6800211846FFF77BFFBF
:10455C00009BDB68B3F1FF3F09D0009BDB6818467A
:10456C00FFF787FF009BDB681846FFF75BFF019B9B
:10457C001868009BD968009B9B681A46FFF776FE6B
:10458C0040E0019B1A68009B9B6919461046FFF797
:10459C00E5FD019B1868009B597D009B1B7D1A460D
:1045AC00FFF7C7FD019B1868009B1968009B5B68AF
:1045BC001A46FFF77CFD009B1B7D012B22D1009B33
:1045CC009B68B3F1FF3F05D0009B9B680021184608
:1045DC00FFF739FF009BDB68B3F1FF3F09D0009B6D
:1045EC00DB681846FFF745FF009BDB681846FFF7B2
:1045FC0019FF019B1868009BD968009B9B681A46A1
:10460C00FFF764FD00BF03B05DF804FB2C0800202D
:10461C0000B583B001900B468DF80330019B1B79DC
:10462C002D4A5B0113441C331B78002B2FD0019BAC
:10463C001B684FF488711846FFF79AFD019B1B68A5
:10464C004FF490711846FFF793FD019B1B684FF4D4
:10465C0092711846FFF78CFD019B1B684FF4A271F9
:10466C001846FFF785FD019B1B681C491846FFF790
:10467C00C3FD019B1B681846FFF768FE03461A46EC
:10468C009DF8033019461046FFF728F920E0019BEE
:10469C001B684FF48E711846FFF7A7FC019B1B6833
:1046AC004FF4A2711846FFF7A0FC019B1B680C4944
:1046BC001846FFF7C1FC019B1B681846FFF746FE26
:1046CC0003461A469DF8033019461046FFF706F9C3
:1046DC0000BF03B05DF804FB2C080020100302009F
:1046EC008000020000B583B00190019B1B790B4A3E
:1046FC005B0113441C331B78002B05D0019B1B68FA
:10470C001846FFF79BFD04E0019B1B681846FFF75A
:10471C00C5FC00BF03B05DF804FB00BF2C080020F3
:10472C0000B587B0039002910192029B002B04D13B
:10473C0022494FF48870FDF740FD039B1B795B0108
:10474C001F4A1344059300230493059BDB7E002B27
:10475C0003D008230493049B2BE0029B5A7F059BF8
:10476C001A7702990398FFF7A3FE059B019A5A60EA
:10477C00029B1A69059B1A60059B5B68002B05D090
:10478C00029B1B7F19460398FFF742FF0398FFF724
:10479C00A9FF059B0022DA75059B00221A76059B62
:1047AC0000229A75059B0122DA76059B00229A76E7
:1047BC00049B184607B05DF804FB00BF04BF030060
:1047CC002C08002000B585B0019000914FF48E713B
:1047DC000198FFF70AFC009B9B68009A928A92B2A0
:1047EC0013441B788DF80F30009B9B8A9BB20133CE
:1047FC009AB2009B9A829DF80F3019460198FFF7E8
:10480C007DFC00BF05B05DF804FB000000B585B071
:10481C000190019B1B795B01344A134402930023E2
:10482C000393019B1B684FF48E711846FFF7DDFB59
:10483C00019B1B6808211846FFF76DFC019B1B6848
:10484C0002991846FFF7BEFF029B5B68002B48D10C
:10485C001FE000BF019B1B684FF48E711846FFF7D9
:10486C00D9FB034683F00103DBB2002B05D0029B7E
:10487C009B8A9BB2B3F5807FECD1029B9B8A9BB247
:10488C00B3F5807F05D0019B1B6802991846FFF792
:10489C0099FF029B9B8A9AB2029B9B7D9BB29A4288
:1048AC00D7D3029B9B8A9BB2B3F5807F02D10F2397
:1048BC00039313E000BF019B1B684FF48E711846E5
:1048CC00FFF7A8FB034683F00103DBB2002BF2D108
:1048DC00019B1B680C211846FFF71DFC029B002254
:1048EC009A75039B184605B05DF804FB2C08002054
:1048FC0000B587B00190019B1B795B012A4A1344D8
:10490C00049300230593019B1B684FF49071184688
:10491C00FFF72EFC019B1B684FF4AC711846FFF798
:10492C0027FC019B1868049B9968049B9B7D1A4685
:10493C00FFF7D8FC019B1B6808211846FFF7A5FC64
:10494C00049B5B68002B2AD1019B1B684FF4907170
:10495C001846FFF722FC03468DF80F30019B1B68AD
:10496C004FF4AC711846FFF718FC03468DF80E3067
:10497C009DF80F3083F00103DBB2002B06D09DF8BD
:10498C000E3083F00103DBB2002BDDD19DF80E302D
:10499C00002B01D00F230593049B00229A75059BD5
:1049AC00184607B05DF804FB2C08002000B587B052
:1049BC000390029113468DF80730039B1B795B0122
:1049CC002E4A13440593059BDB7E012B04D02C4906
:1049DC004FF4CC70FDF7F1FB9DF80730002B04D1A0
:1049EC00274940F29910FDF7E8FB029B002B04D1FC
:1049FC0023494FF4CD70FDF7E0FB039B1B791F4A55
:104A0C005B0113441C331B78002B0CD00298FFF76E
:104A1C00A8FC034683F00103DBB2002B03D0102368
:104A2C000493049B25E0039800F02CF80346002B1C
:104A3C0003D011230493049B1BE0059B9DF80720D6
:104A4C009A75059B029A9A60059B00229A82039B99
:104A5C001B790A4A5B0113441C331B78002B04D0CE
:104A6C000398FFF745FF034603E00398FFF7CEFEDC
:104A7C000346184607B05DF804FB00BF2C08002065
:104A8C0004BF030082B00190019B1B79064A5B01B5
:104A9C00134416331B78002B14BF01230023DBB205
:104AAC00184602B0704700BF2C08002000B583B038
:104ABC000190019B1B684FF492711846FFF795FA11
:104ACC00019B1B684FF484711846FFF78EFA019B0B
:104ADC001B6800211846FFF71EFB00BF03B05DF8F2
:104AEC0004FB10B582B001900091009BDB7D002B84
:104AFC0008D14FF484710198FFF777FA0198FFF70A
:104B0C00F4FA16E04FF484710198FFF76EFA009BEB
:104B1C00DB68009A527ED2B29C180198FFF7E5FA36
:104B2C0003462370009B5B7EDBB20133DAB2009B41
:104B3C005A7602B010BD000000B589B00390029106
:104B4C0011461A460B468DF8073013468DF8063081
:104B5C00039B1B795B014D4A13440793079B9B7E78
:104B6C0083F00103DBB2002B09D09DF8063083F0F3
:104B7C000103DBB2002B02D00398FFF797FF079BD2
:104B8C005B68002B73D1039B1B684FF4A271184612
:104B9C00FFF72BFA039B1B684FF492711846FFF733
:104BAC0039FA03468DF81B30039B1B684FF4847154
:104BBC001846FFF72FFA03468DF81A30039B1B6833
:104BCC004FF4A2711846FFF725FA03468DF81930F9
:104BDC009DF81A3083F00103DBB2002B0DD09DF849
:104BEC00193083F00103DBB2002B06D09DF81B308B
:104BFC0083F00103DBB2002BCCD19DF81B30002BD2
:104C0C0010D19DF81930002B0CD1039B1B68079910
:104C1C001846FFF766FF079BDA7D079B5B7EDBB2CE
:104C2C009A42B7D8079B0022DA759DF81B30002BEF
:104C3C0003D003230593059B23E09DF81930002B2B
:104C4C0003D00F230593059B1BE0079B9B7E002B3A
:104C5C0006D0039B1B6800211846FFF75CFA0DE099
:104C6C00039B1B6804211846FFF755FA06E0039BCB
:104C7C001B684FF401711846FFF7DEF9002305930A
:104C8C00059B184609B05DF804FB00BF2C080020FA
:104C9C0000B587B00390029111461A460B468DF869
:104CAC00073013468DF8063000230593039B1B68D1
:104CBC004FF488711846FFF75BFA039B1B684FF49F
:104CCC00A2711846FFF754FA039B1B689DF8072046
:104CDC0002991846FFF720FB9DF8063083F001037C
:104CEC00DBB2002B06D0039B1B6800211846FFF794
:104CFC00CCFA05E0039B1B6820211846FFF75FFAEE
:104D0C00039B1B792D4A5B01134404331B68002B56
:104D1C0047D1039B1B684FF488711846FFF73DFA87
:104D2C0003468DF81330039B1B684FF4A271184691
:104D3C00FFF733FA03468DF81230039B1B684FF4D0
:104D4C0092711846FFF729FA03468DF811309DF839
:104D5C00133083F00103DBB2002B0DD09DF8123021
:104D6C0083F00103DBB2002B06D09DF8113083F0E9
:104D7C000103DBB2002BCCD1039B1B790F4A5B01E7
:104D8C001344173300221A709DF81130002B01D0F8
:104D9C00032305939DF81230002B09D00F230593A4
:104DAC0006E0039B1B684FF404711846FFF724FAC6
:104DBC00059B184607B05DF804FB00BF2C080020CB
:104DCC0000B589B00390029113468DF80730039B10
:104DDC001B795B015A4A13440693039B1B79584A6F
:104DEC005B0113441B331B78012B04D055494FF442
:104DFC001670FDF7E2F99DF80730002B04D15149EC
:104E0C0040F25920FDF7D9F9039B1B794C4A5B0101
:104E1C0013441C331B78002B0CD00298FFF7A1FA1B
:104E2C00034683F00103DBB2002B03D01023059360
:104E3C00059B81E000238DF81F30069B5B68002BDF
:104E4C0017D0039B1B793E4A5B0113441C331B7820
:104E5C00002B07D0039B1B684FF404711846FFF717
:104E6C00D5F906E0039B1B684FF401711846FFF758
:104E7C00FDF8069BDB7D002B26D0069B1B7E002BB2
:104E8C001FD0069B5B68002B17D0039B1B792C4A09
:104E9C005B0113441C331B78002B07D0039B1B684E
:104EAC004FF404711846FFF7A7F906E0039B1B6843
:104EBC004FF401711846FFF7BFF811230593059BBA
:104ECC003AE001238DF81F309DF81F3083F0010369
:104EDC00DBB2002B0DD0069B9DF80720DA75069BE4
:104EEC00029ADA60069B00225A76069B00221A76FA
:104EFC0006E0069B029A1A61069B9DF807201A761B
:104F0C00039B1B790E4A5B0113441C331B78002B4B
:104F1C0009D09DF81F309DF8072002990398FFF7E0
:104F2C00B7FE034608E09DF81F309DF80720029954
:104F3C000398FFF701FE0346184609B05DF804FB21
:104F4C002C08002004BF030000B583B00190019B26
:104F5C001B79144A5B0113441C331B78002B05D0BE
:104F6C0011494FF42E70FDF728F916E0019B1B79BF
:104F7C000C4A5B0113441A331B7883F00103DBB238
:104F8C00002B0AD00198FFF791FD019B1B79054A74
:104F9C005B0113441A3301221A7000BF03B05DF891
:104FAC0004FB00BF2C08002004BF030000B589B02F
:104FBC0003900B4601928DF80B3001238DF81030C5
:104FCC009DF80B308DF81830019B0593039B5B68A3
:104FDC00039A116804AA1046984700BF09B05DF8FF
:104FEC0004FB00B587B001900B468DF8033000230D
:104FFC008DF808309DF803308DF81030019B9B68BC
:10500C000393019B00229A75019B5B68019A1168BE
:10501C0002AA1046984700BF07B05DF804FB00B524
:10502C0089B0019000914FF400710198FFF70EF8D0
:10503C000346002B39D04FF492710198FEF7EAFF2A
:10504C000346002B31D04FF492710198FEF7CDFF3F
:10505C004FF401710198FFF709F8009B9B7E83F0D8
:10506C000103DBB2002B03D004210198FFF753F8A6
:10507C0002238DF808300198FFF702F803460593D8
:10508C00009BDB7D8DF81030009BDB680393009B4D
:10509C000022DA75009B00221A76009B5B68009A4E
:1050AC00116802AA1046984756E004210198FEF7B1
:1050BC00CDFF0346002B4FD04FF484710198FEF7BF
:1050CC00A9FF0346002B47D000990198FFF709FD73
:1050DC00009BDA7D009B5B7EDBB29A423CD1009B4D
:1050EC001B7E002B1CD0009BDB680793009B5B7E18
:1050FC008DF81B30009B1A7E009BDA75009B1A6999
:10510C00009BDA60009B00221A76009B00225A76E4
:10511C009DF81B30079A19460098FFF747FF1BE0D4
:10512C00009B9B7E83F00103DBB2002B03D0042198
:10513C000198FEF7F0FF4FF401710198FEF796FF0E
:10514C00009B0022DA75009B5B7ED9B2009BDB686A
:10515C001A460098FFF72AFF4FF48E710198FEF75C
:10516C0059FF0346002B1BD0009B9B8A9AB2009BD5
:10517C009B7D9BB29A4204D200990198FFF722FBC7
:10518C000EE04FF48E710198FEF72FFF009B9B7D74
:10519C00002B05D0009B9B7D19460098FFF721FF43
:1051AC004FF4A2710198FEF735FF0346002B1CD07B
:1051BC004FF4A2710198FEF718FF009B9B7E002B09
:1051CC0003D000210198FEF7A6FF009BDB7D002B8E
:1051DC000BD0009B0022DA75009B5B7ED9B2009B42
:1051EC00DB681A460098FFF7E1FE00BF09B05DF8D6
:1051FC0004FB00B589B0019000914FF492710198B5
:10520C00FEF7CBFF0346002B24D04FF4927101988C
:10521C00FEF7AEFF02238DF808300198FFF700F877
:10522C00034605930198FFF789F80346DBB28DF826
:10523C001030009BDB680393009B0022DA75009B07
:10524C0000221A76009B5B68009A116802AA10462D
:10525C00984741E04FF488710198FEF79EFF034692
:10526C00002B39D04FF488710198FEF781FF01981B
:10527C00FFF764F803468DF81F30009BDB7D9DF82B
:10528C001F209A4228D1009B1B7E002B19D0009B1B
:10529C00DB68069320210198FEF79FFF009B1A7E86
:1052AC00009BDA75009B1A69009BDA60009B002258
:1052BC001A769DF81F30069A19460098FFF776FE6D
:1052CC000AE0009B0022DA75009BDA689DF81F301B
:1052DC0019460098FFF76AFE4FF4A2710198FEF789
:1052EC005CFF0346002B16D04FF4A2710198FEF719
:1052FC003FFF009BDB7D002B0DD0009B0022DA755D
:10530C000198FFF71BF80346D9B2009BDB681A46DD
:10531C000098FFF74BFE4FF490710198FEF73DFF9C
:10532C000346002B11D04FF490710198FEF720FF2B
:10533C00009B9B7D002B08D00198FEF7E5FF0346F0
:10534C00DBB219460098FFF74CFE00BF09B05DF8C0
:10535C0004FB000008B5074B1B7F002B04D005494C
:10536C000548FFF746FF03E002490348FFF757FEE5
:10537C0000BF08BD2C0800200080024000B583B09F
:10538C000190019B1B78022B07D1019B5B680A4A99
:10539C0050211846FBF7DEFF0AE0019B1B78012B1E
:1053AC0006D1019B5B68044A54211846FBF7D2FFD7
:1053BC0000BF03B05DF804FB3CBF030030B58DB0FB
:1053CC00134B04AC1D460FCD0FC495E8030084E8C5
:1053DC000300104B00934FF4807301930E4B029318
:1053EC004FF480730393694604A807230B4AFDF717
:1053FC007FFE0B900B9B0A930A9B002B04D0084A50
:10540C006E210A98FBF7A6FF00BF0DB030BD00BFA0
:10541C0068BF03004C0800204C0900208953000091
:10542C003CBF030000B583B003468DF807309DF8F0
:10543C0007301846FDF7F0FE00BF03B05DF804FB23
:10544C0010B582B001900091019B03F00403002B76
:10545C000CD0009807F025FA0346023B022B04D926
:10546C00002000F0E9FD00BF00E000BF084B1B88E6
:10547C001B0443F00304009807F013FA0346019A47
:10548C0004492046FBF76BFB00BF02B010BD00BF08
:10549C000000002080BF030000B583B0FCF776FD50
:1054AC000190019B0093009B002B04D0044AAF2178
:1054BC000098FBF74FFF00BF03B05DF804FB00BF83
:1054CC003CBF030000B583B00020FBF7C9F8019086
:1054DC00019B0093009B002B04D0054AB821009837
:1054EC00FBF738FFFBF71AF800BF03B05DF804FBBD
:1054FC003CBF030000B585B001AB00221A605A60B6
:10550C009A6001238DF8063040F6C41302930A23E7
:10551C00039301AB184600F077FF034801F0E6F85F
:10552C0000BF05B05DF804FB4D54000000B583B01E
:10553C0001238DF8043000238DF8053000238DF8FD
:10554C00063000238DF8073001AB0449184600F0F3
:10555C0003FD00BF03B05DF804FB00BF3154000035
:10556C0000B583B001900091FFF7ACFFFFF794FFFB
:10557C00FFF724FF00F08AFE00F0E4FD00F0A0FE2F
:10558C00FFF7B8FFFFF7D2FF01F06EF8FBF722FB35
:10559C00034683F00103DBB2002BF5D001F084F855
:1055AC00F2E7000000B583B01F4B0193019B022270
:1055BC001A61019B02225A61019B1C4A9A61019B50
:1055CC001B4ADA61019B4FF400721A62019B0022A4
:1055DC009A62019B00225A62019B0022DA62019BB3
:1055EC00124A9A64019B134ADA64019B10221A65D1
:1055FC00019B00229A65019B00225A65019B0022A7
:10560C00DA65019B07330C49184601F04BFC019BF2
:10561C000A49184601F046FC019B20229A7100BFF2
:10562C0003B05DF804FB00BF4C0A0020B0BF0300C0
:10563C00C40A0020C40C0020BCBF0300C0BF030080
:10564C0000B589B003900291019200230693039B4D
:10565C00DB680593039B1B690493049A059B9A4290
:10566C0005D9049A059BD31A013B079307E0039BCA
:10567C009A680499059BCB1A1344013B0793039B2F
:10568C009A68059BD31A079A934228BF134607932F
:10569C00079A019B934228BF13460793039B5A68B2
:1056AC00059B1344079A0299184601F09DFB069A34
:1056BC00079B13440693029A079B13440293019A87
:1056CC00079BD31A0193059A079B13440593039BDD
:1056DC009A68059B9A4201D100230593039B059A76
:1056EC00DA60019B002BB5D1069B184609B05DF81A
:1056FC0004FB00B589B0039002910192039BDB6817
:10570C000793039B9A68079BD31A0693069A019BEF
:10571C009A420ED9039B5A68079B1344019A02992B
:10572C00184601F061FB079A019B1A44039BDA604F
:10573C001AE0069B0593039B5A68079B1344059A32
:10574C000299184601F050FB019A069BD31A059357
:10575C00039B5868029A069B1344059A194601F05C
:10576C0043FB039B059ADA6000BF09B05DF804FBAC
:10577C0086B00190019B1B690493019BDB6803932A
:10578C00049A039B9A4208D8019B9A68039BD21AED
:10579C00049B1344013B059304E0049A039BD31A26
:1057AC00013B0593059B184606B0704700B589B0C0
:1057BC00039002910192029B0693039B5A1C134681
:1057CC005B001344DB001F4A13440593059B5B6984
:1057DC00012B17D0012B02D3022B23D029E00598E3
:1057EC00FFF7C6FF0490049A019B9A4202D2002351
:1057FC00079321E0019B0793019A06990598FFF7FF
:10580C0078FF19E00598FFF7B3FF0490019A049B09
:10581C00934228BF13460793079A06990598FFF7FA
:10582C0068FF09E0019A06990598FFF709FF0790B0
:10583C0002E00023079300BF079B184609B05DF8F0
:10584C0004FB00BF4C0A002000B587B00390029106
:10585C00019200932E4B1B78002B01D1FFF7A2FE77
:10586C002B4B1B691A46039B9A4248D90020FCF724
:10587C005DFC039B002B32D02549039B5A1C13461D
:10588C005B001344DB000B44029A1A602049039B13
:10589C005A1C13465B001344DB000B440433019A7F
:1058AC001A601B49039A13465B001344DB000B443C
:1058BC002033009A1A601649039A13465B0013446E
:1058CC00DB000B44283300221A601149039A13465B
:1058DC005B001344DB000B44243300221A600C4998
:1058EC00039A13465B001344DB000B442C33089AD9
:1058FC001A600020FCF72EFC0023059302E04FF009
:10590C00FF330593059B184607B05DF804FB00BFF9
:10591C004C0A002008B5FFF745FE00BF08BD00008B
:10592C00BFF34F8F0549054BDB6803F4E062044B72
:10593C001343CB60BFF34F8F00BFFDE700ED00E0DA
:10594C000400FA05024B034A1A6000BF704700BFFF
:10595C00880000200090D00308B500F025F903461C
:10596C00002B0ED04FF080430022C3F80C214FF0D7
:10597C0080430022C3F810214FF080430022C3F86B
:10598C00382500F023F90346002B76D07D4A4FF0E2
:10599C008053D3F80434C2F820357A4A4FF0805340
:1059AC00D3F80834C2F82435764A4FF08053D3F834
:1059BC000C34C2F82835734A4FF08053D3F81034A6
:1059CC00C2F82C356F4A4FF08053D3F81434C2F818
:1059DC0030356C4A4FF08053D3F81834C2F8343554
:1059EC00684A4FF08053D3F81C34C2F84035654AEE
:1059FC004FF08053D3F82034C2F84435614A4FF04D
:105A0C008053D3F82434C2F848355E4A4FF08053A3
:105A1C00D3F82834C2F84C355A4A4FF08053D3F897
:105A2C002C34C2F85035574A4FF08053D3F83034E9
:105A3C00C2F85435534A4FF08053D3F83434C2F87B
:105A4C006035504A4FF08053D3F83834C2F864357F
:105A5C004C4A4FF08053D3F83C34C2F86835494A6D
:105A6C004FF08053D3F84034C2F86C35454A4FF0B0
:105A7C008053D3F84434C2F8703500F0B9F80346BB
:105A8C00002B02D0404B414A1A6000F0C3F8034689
:105A9C00002B03D03E4BFB22C3F8182500F0CCF8AA
:105AAC000346002B0AD03B493A4B1B6823F00F02EC
:105ABC00394B1B6803F00F0313430B6000F0CEF857
:105ACC000346002B03D0354B4FF400721A6000F0E4
