:10000000000004206D3C0000953C0000973C00007F
:10001000993C00009B3C00009D3C0000000000005B
:100020000000000000000000000000009F3C0000F5
:10003000A13C000000000000A33C0000A53C000023
:10004000DD26000039800200656A0200A73C00003E
:10005000A73C0000A73C00001D2B0000A73C0000AF
:10006000A73C0000A73C0000A73C0000A73C000004
:10007000A73C000015670200A73C0000A73C000059
:10008000A73C0000D9120000A73C0000A73C0000DC
:1000900079130000A73C0000A73C0000A73C00002B
:1000A000A73C0000A73C0000A73C0000A73C0000C4
:1000B000A73C0000A73C000000000000000000007A
:1000C000A73C0000A73C0000A73C0000A73C0000A4
:1000D000895F0200A73C0000A73C0000A73C00008D
:1000E000A73C0000A73C0000A73C00000000000067
:1000F00000000000A73C000000000000A73C00003A
:1001000000000000000000000000000000000000EF
:1001100000000000000000000000000000000000DF
:1001200000000000000000000000000000000000CF
:1001300000000000000000000000000000000000BF
:1001400000000000000000000000000000000000AF
:10015000000000000000000000000000000000009F
:10016000000000000000000000000000000000008F
:10017000000000000000000000000000000000007F
:10018000000000000000000000000000000000006F
:10019000000000000000000000000000000000005F
:1001A000000000000000000000000000000000004F
:1001B000000000000000000000000000000000003F
:1001C000000000000000000000000000000000002F
:1001D000000000000000000000000000000000001F
:1001E000000000000000000000000000000000000F
:1001F00000000000000000000000000000000000FF
:1002000010B5054C237833B9044B13B10448AFF350
:1002100000800123237010BD200100200000000099
:100220000C2C0400084B10B51BB108480849AFF36B
:1002300000800848036803B910BD074B002BFBD0B2
:10024000BDE81040184700BF000000000C2C04005F
:1002500024010020EC00002000000000154B002BC2
:1002600008BF134B9D46A3F5803A00218B460F46ED
:100270001348144A121A38F05FFC0F4B002B00D0C1
:1002800098470E4B002B00D0984700200021040017
:100290000D000D48002802D00C48AFF3008038F064
:1002A000EFFB2000290003F02BFB38F0C3FB00BF5D
:1002B0000000080000000420000000000000000012
:1002C0002001002060E40020000000000000000089
:1002D000704700BF704700BF00B583B0044B009368
:1002E000044A402300F01EF803B05DF804FB00BF91
:1002F000F90200003C010020F8B5144672B10F4627
:100300000A26002579192246002003F047FB054400
:10031000241A08B9013E01D0002CF3D1F8BD00BF6A
:1003200003F074BCF0B595B0002415460F4608469E
:100330001E4602F061F83846234605A908220895B2
:100340001A9D09960D950A948DF82C400C9402F094
:10035000B1F89DF81430079806998DF8104003F015
:100360000302012A0290ADF80C102CD0022A04D00E
:10037000384602F051F815B0F0BDBDF81650C3F381
:10038000C202C3F38003C5F389158DF80E208DF8E2
:100390000F300826082D2C4628BF08243346224655
:1003A00038460EA902F086F82D1B21460EA802AA97
:1003B00008AB264400F0ACFC002DEBD1384602F02F
:1003C0002BF815B0F0BDBDF81460059DC6F383167B
:1003D000C3F3C20EB2000EA9C3F38004384608234B
:1003E000C5F395258DF80EE08DF80F4002F062F808
:1003F00008AB0093284632460EA902AB00F0F0FB92
:10040000B6E700BF10B5054CFFF78AFF2046042170
:1004100000F0A6FB0123637210BD00BF00000020A6
:1004200008B5104B10480022FF21C3F8182499602A
:100430001A605A60C3F8142483F81C2401F094FF56
:1004400070B90A4B0A4A9A1AD20807D009490346DA
:100450000B520133934200F10C00F9D1002008BD8A
:1004600008BD00BF7C0100206CA70300582C0400CD
:10047000382C0400F000002021B9124A02EBC00021
:100480000068704730B410490E4D491BC9080ED0A2
:100490000E4B5A88824218BF002205D10FE0DC893A
:1004A000844203F10C0305D001328A42F7D10020C7
:1004B00030BC704705EBC200006830BC704728466E
:1004C000FAE700BF382C0400582C0400F00000208C
:1004D000064B032903EBC00005D0042901D1407964
:1004E0007047002070470079704700BF382C040027
:1004F0002DE9F04F824C626823689A4285B03CD067
:100500000023C4F81834BFF34F8F6068A56805EA6C
:100510000003023304EB8302111D127912F0030F62
:10052000024610D10B884988C3F3891303EB91135A
:1005300001331A4402EA0503023304EB8306311D3A
:100540003679B607EED004EB8303511C5E68019642
:10055000294004EB810306F00306DB680293022EB8
:1005600002F10208664F0CD0012E63D02368181ADE
:1005700018BF012005B0BDE8F08F002005B0BDE830
:10058000F08FBDF806305F48C3F38919B9F1500FF9
:10059000CA46A8BF4FF0500A6AF38F130AF1080148
:1005A000ADF8063001F0E2FE0646002800F0838038
:1005B00025EA080B0BF1010B01F01EFF4FEA8B0B34
:1005C000304601A90822002301F04CFFDA4540F231
:1005D0008A80BBF1000F70D107F10C015246304602
:1005E000082301F03FFF09F1030708EB9707D4F850
:1005F0001834DFF80C81D4F81054002B55D14DB1CC
:100600006B7A2846314613B12B681B6898476D6892
:10061000002DF5D1304601F0FFFE002001F01AFB5D
:10062000D4F81834364A03B95760002001F01AFB99
:1006300060689BE7BDF804303248C3F38312062A92
:1006400028BF0622911C62F389138900ADF804309B
:1006500001F08CFE064670B301F0CEFE002330465A
:1006600001A9082201F0FEFEBDF8043013F4707FEA
:1006700044D04FF0000A4FF0080908EA050104EBE6
:1006800081014B460C313046042201F0EBFEBDF8EF
:1006900004300AF1010AC3F3831308F1010753453B
:1006A00009F10409B846E8D8A1E7304601F0B4FEE4
:1006B000D8F804005AE7786858E708EA050107EB1C
:1006C0008101CBEB0A0530465A460C31EDB20823C6
:1006D00001F0C8FE30462A4607F10C010BF1080371
:1006E00001F0C0FE7FE708EA050107EB81010C314C
:1006F00052463046082301F0B5FE74E7474676E7D8
:100700007C0100206CA703002DE9F04F554C89B007
:10071000A368029000200391019301F09BFAA56861
:100720006168D4F800806B180133C8EB0303032B16
:100730005FD805F10109C8EB090904F5836C04F2DF
:1007400014470126A2464FF0000E5CE8003F43EA42
:1007500006024CE8002090F0000FF6D157E8003F69
:1007600043EA060247E8002090F0000FF6D101EAC4
:100770000503023304EB8302101D127912F0030FFC
:100780000A4613D103884088C3F3891303EB9013FF
:1007900001331A4402EA0503023304EB830B0BF125
:1007A00004009BF804B01BF0030FEBD004EB8303B1
:1007B00002325B68059303F00303012B4BD0022B3D
:1007C00006D1BDF81630C3F38913033302EB93024D
:1007D00057E8003F03EA0E0047E8000B9BF0000FCC
:1007E000F6D113B1CAF80420114609EB0103032B1B
:1007F000ABD908F102030020236001F033FA019E17
:10080000029D08EA0603023304EB830301211A79EF
:1008100061F30102C5F3001161F3820265F3C502C1
:100820001A719A886FF389129A805968039808F1AF
:10083000010260F39F215960324004EB820394F877
:100840001C24290CD9601AB1FFF752FE0028FBD1F5
:1008500009B0BDE8F08FBDF81430C3F383131A4418
:10086000B6E700BF7C0100202DE9F04F5A4C89B05B
:10087000A3680190002002910093039201F0EAF92D
:10088000A5686168D4F800806B180133C8EB0303D6
:10089000042B5FD805F10109C8EB090904F5836C45
:1008A00004F214470126A2464FF0000E5CE8003F18
:1008B00043EA06024CE8002090F0000FF6D157E81A
:1008C000003F43EA060247E8002090F0000FF6D10F
:1008D00001EA0503023304EB8302101D127912F0C2
:1008E000030F0A4613D103884088C3F3891303EB2F
:1008F000901301331A4402EA0503023304EB830B1D
:100900000BF104009BF804B01BF0030FEBD004EBD9
:10091000830302325B68059303F00303012B54D079
:10092000022B06D1BDF81630C3F38913033302EB53
:10093000930257E8003F03EA0E0047E8000B9BF0E4
:10094000000FF6D113B1CAF80420114609EB0103D8
:10095000042BABD908F103030020236001F082F9D6
:10096000009D019E08EA0503023304EB8303012185
:100970001A79C6F3001061F3010260F3820266F394
:10098000C5021A719A8861F389129A8059683046B3
:10099000029E08F1010266F39F2108F102082A4035
:1009A000596004EB820208EA050304EB8303000CA0
:1009B00094F81C14D060039ADA6019B1FFF798FD1F
:1009C0000028FBD109B0BDE8F08FBDF81430C3F3A7
:1009D00083131A44ADE700BF7C0100202DE9F04FDE
:1009E0005E4C8BB0029005930020A36803910193A5
:1009F000049201F02FF9A5686168D4F800806B18A3
:100A00000133C8EB0303052B5FD805F10109C8EBDF
:100A1000090904F5836C04F214470126A2464FF03D
:100A2000000E5CE8003F43EA06024CE8002090F02C
:100A3000000FF6D157E8003F43EA060247E80020DE
:100A400090F0000FF6D101EA0503023304EB8302B4
:100A5000101D127912F0030F0A4613D10388408843
:100A6000C3F3891303EB901301331A4402EA05031D
:100A7000023304EB830B0BF104009BF804B01BF072
:100A8000030FEBD004EB830302325B68079303F0A0
:100A90000303012B5BD0022B06D1BDF81E30C3F33C
:100AA0008913033302EB930257E8003F03EA0E0079
:100AB00047E8000B9BF0000FF6D113B1CAF80420F1
:100AC000114609EB0103052BABD908F10403002003
:100AD000236001F0C7F8019D029E08EA0503023376
:100AE00004EB830301211A7961F30102C6F30011BB
:100AF00061F3820266F3C5021A719A88022161F3DA
:100B000089129A805868039A08F1010162F39F20C4
:100B1000294008F1020208F10308586004EB810142
:100B200008EA05032A4004EB820294F81C0404EB53
:100B30008304330CCB60049BD360059BE36018B146
:100B4000FFF7D6FC0028FBD10BB0BDE8F08FBDF855
:100B50001C30C3F383131A44A6E700BF7C010020B6
:100B600030B4144DD5F81044002154B1237A8B428F
:100B700014D0234602E01A7A8A420FD05B68002B19
:100B8000F9D10172D5F810340A4A7BB15B68436031
:100B9000D2F810345860084630BC704701310A2939
:100BA000E3D14FF0FF31084630BC7047C2F8100463
:100BB0004360F0E77C01002038B5084BD3F81044BF
:100BC000012583F81C543CB12368657220465B689C
:100BD00098476468002CF7D138BD00BF7C01002025
:100BE0002DE9F04784B01D460C9C002394F80C803E
:100BF0002373EB7981460E4617460BB3062F0FD8A9
:100C0000DFE807F0363B414804515E00B168F06808
:100C100096E80C00009101904946204601F090F8BA
:100C2000EB792BB92B7AEBB92046334901F088F8E0
:100C3000204601F079F884F80C8004B0BDE8F08714
:100C40002B7A002B4BD1AA792C4BA88853F822A0E1
:100C50000021FFF711FC524603462949204601F0C6
:100C60006FF8CBE720462749274A01F069F8DBE710
:100C70004946204601F064F8D2E7494632682046EA
:100C800001F05EF8CCE74946204696E80C0001F0FA
:100C900057F8C5E7B16896E80C0020460091494630
:100CA00001F04EF8BCE7B1683069F76896E80C00CF
:100CB0000091029049460197204601F041F8AFE7C4
:100CC00096E80C00B168F068376976690396009180
:100CD000019049460297204601F032F8A0E7A97931
:100CE000A888FFF7F5FB094B064953F8202020465A
:100CF00001F026F8A7E700BF24AB030080A703009C
:100D0000BCA70300B8A70300C8A7030094A703006B
:100D1000082951D82DE9F0471D46002395F80C907D
:100D20002B73D379904607460E46002B45D00024FE
:100D300005E03A5D013401F003F8082C0AD0A64220
:100D400028463049F5D828462F49013400F0F8FFED
:100D5000082CF4D128462D49DFF8D4A000F0F0FF8C
:100D600000240DE03A5DDAF80030134401345B787A
:100D700013F0970F08BF2E2200F0E2FF082C0AD0D4
:100D8000A64228462249EDD828462249013400F0DF
:100D9000D7FF082CF4D198F8073013B998F8083029
:100DA000F3B928461C4900F0CBFF284600F0BCFFF1
:100DB00085F80C90BDE8F0877047137AB3B998F8BE
:100DC0000620164BB8F8040053F822400021FFF724
:100DD00053FB224603461249284600F0B1FFA6E71E
:100DE00028461049104A00F0ABFFDAE79179908865
:100DF000FFF76EFB0D4B0B4953F82020284600F0FF
:100E00009FFFDCE7D0A70300D8A70300DCA70300FF
:100E1000E0A70300C4A7030024AB030080A70300DE
:100E2000BCA70300B8A70300C8A7030094A703004A
:100E30007C000020084B1B5C1F2B8ABF074A4FF029
:100E4000A04203F01F03D2F80405D84000F00100CF
:100E500080F00100704700BF44A803000003005069
:100E6000074B1B5C1F2B86BF03F01F0305494FF088
:100E7000A041012202FA03F3C1F80C35704700BF0C
:100E800044A8030000030050064B1A5C1F2A86BFCB
:100E900002F01F0204494FF0A04101239340C1F822
:100EA0000835704744A80300000300504FF0A043EA
:100EB00010B44FF480404FF400544FF400414FF40D
:100EC0008032C3F80845C3F80805C3F80815C3F80D
:100ED00008255DF8044B70474FF0A04310B44FF461
:100EE00080404FF400544FF400414FF48032C3F877
:100EF0000C45C3F80C05C3F80C15C3F80C255DF8B8
:100F0000044B70470A4B195C1F298ABF09484FF0F0
:100F1000A04001F01F01D0F8043501228A4022EAE6
:100F200003011340C0F80815C0F80C35704700BF26
:100F300044A803000003005030B44FF0A043032244
:100F40004FF400554FF480444FF400404FF480318B
:100F5000C3F83427C3F83827C3F83C27C3F8402721
:100F6000C3F80855C3F80845C3F80805C3F80815C1
:100F700030BC70470B2809D00C2809D0182809D09C
:100F8000192814BF4FF0FF3003207047002070472E
:100F900001207047022070474B4B1978002900F060
:100FA00091802DE9F04F87B0DFF828C1049100242B
:100FB000012504E00134049BE4B29C4265D227B2CF
:100FC000DCF8006016F83700A0F1200305FA03F9F9
:100FD0003E4BC0F1200ED3E9002325FA0EFE49EA6C
:100FE0000E0905FA00F808EA020A09EA030B06EB03
:100FF000C7015AEA0B0E0591DCD03449CDF810C078
:1010000022EA080223EA0903C1E9002301F076FD80
:1010100016F83760DDF810C0A6F1200205FA02F2DA
:1010200001920199C6F120035FFA80FA25FA03F3D1
:10103000A6F1200219430AFA02F30393019105FA7B
:1010400006F10091C6F120070399214B2AFA07F710
:10105000394303910AFA06F1D3E900230291DDE94D
:1010600000011040194002460B46DDE902018B42A7
:1010700008BF82424FF0000B0AD0134B1B78049339
:101080000134049BE4B29C4299D307B0BDE8F08FD1
:10109000059A576852780023A2F10102B2FA82F24F
:1010A0005209002FE9D05B4506BF524501210021BE
:1010B0003046CDF814C0B847034BDDF814C01B7898
:1010C000049377E7704700BF74060020A006002055
:1010D00098060020700600202DE9F84307462048B6
:1010E00000F082FDD0B91F4E0123A7F1200103FAC1
:1010F00001F5C7F12002D6E9000123FA02F21543F7
:1011000003FA07F404EA000205EA0103134307D0D7
:1011100020EA040421EA0505C6E90045BDE8F88394
:10112000384601F0EBFC104FD7E9002398B144EAB0
:10113000020845EA0309D6E9002314431D43C7E921
:101140000089C6E900450949054809680022BDE84B
:10115000F84300F0F5BC22EA040823EA0509EAE7AF
:1011600078060020A0060020980600206C060020CB
:10117000F0B5042A83B0164602D8072003B0F0BDAC
:1011800005460F4601F05AFB002836D01D4BDFF80C
:101190008CC0DFF88CE01C481C491D600022002335
:1011A0007C1E8CF80070CEF80060C0E90023C1E915
:1011B0000023E4B2DFB10327002600E01C4623B27F
:1011C00005EBC30215F833009378114A8DF805300A
:1011D00001A98DF804708DF806608DF8076001F0A4
:1011E00037FB631E0028C9D1DBB2002CE6D1094AC7
:1011F0000948002100F092FCC0E701F0D9FA00286C
:10120000C4D0BBE77006002098060020A00600208E
:10121000D9100000990F000048A8030074060020B0
:101220006C06002070B5084D2B785BB1074E00248A
:101230003368012113F8340001F0E4FB2B7801340A
:10124000A342F5D8002070BD74060020700600206F
:1012500000B585B000230390194644F2010001AAAD
:10126000ADF80430029300F003F805B05DF804FB1C
:1012700010B5FFF7A1FCFFF73BF90028FBD1104C9C
:1012800010492088000440F00100FFF73DFA0E4BA2
:101290001B68DB0700D5FFDE20880C49000440F006
:1012A0000200FFF731FABFF34F8F0949094BCA68B3
:1012B00002F4E0621343CB60BFF34F8F00BFFDE742
:1012C000F00000204CA80300F0ED00E058A8030057
:1012D00000ED00E00400FA05F8B5204A204B002597
:1012E000C2F84051C2F84451C2F84851C2F84C51BA
:1012F000C2F80051C2F804511B6813B31949D2F85F
:1013000004250C68141B1A6824F07F44A2422F465F
:1013100009D8197CDE69A41A154499B91EB133465F
:101320001A68A242F5D9104B10491A780B789A42E4
:101330000DD00F490F4A41F823504FF48013C2F8E3
:101340000031F8BD1F745A6998699047E6E7531C4D
:10135000DBB2022B08BF00230B70EAE7001001404C
:10136000AC060020A8060020B0060020B106002030
:10137000C007002000E100E02DE9F04F7D4A7E49E2
:10138000137809787D48994287B0066800F0E881B3
:101390000133DBB2022B08BF002379491370794A6D
:1013A0000291084652F82310036874488A190025F0
:1013B00022F07F420260AE462846A3B11A688A42F4
:1013C00000F2D681DC68C3F800E0891A1044DA69BB
:1013D00034B1871927F07F47DD619C605F601D464F
:1013E0001346002BEAD1029A04931360049C012354
:1013F0000593654BDFF894811B7801935F4BDFF811
:1014000090C1D3F800A0029B1F680023BB462F4663
:101410000093C1461E464FF0010E37B37A68B96893
:101420003D46FF69CAEB020323F07F4363453CD886
:101430000B442B606E60AE6085F810E0EE61002C0E
:1014400067D021688B4242D9204603E01168994257
:1014500044D21046C2695B1A002AF7D12B60EA61B8
:101460002346C5611C46002FD8D198F8003098F863
:1014700001209A4200F08E805A1C03EB430308EBD4
:10148000C30399F802109D68D2B2914289F80020F6
:101490001A7908BF89F80070022A48D0032A3CD084
:1014A000012A22D023461C46DDE7C2EB0A0222F0C5
:1014B0007F428A4202D28B1A2B60BBE72E606E609D
:1014C000AE6085F810E0EE611CB321680023CB1AF2
:1014D00023602B46EC61AB461C46C4E7C91A116079
:1014E0002B60EA612346C561BCE72A7C0392002A8F
:1014F000D8D1DA686A601969A9605869E860103360
:101500009B68AB61019B002B8CD0039B6B601A46E0
:1015100088E72B46AB461C46A5E70CB9C2E71C463C
:10152000E3692674002BFAD19B461C469BE754B115
:10153000A54200F00881234602E0954207D01346F9
:10154000DA69002AF9D123462E741C468BE7AB4298
:1015500000F0FA80E9692868D9610029F3D02346B0
:101560000A6802440A60009A2E749C4218BF012245
:101570000092EAE7B0060020B1060020A80600208D
:10158000AC060020C0070020B2060020B4060020F0
:10159000FEFF7F00029B9DF80420C3F800B0764B4D
:1015A000C3F800A0754B1A70009B1BB9049BA342A3
:1015B00000F0D081002C00F03C81714D6E4BD5F8CD
:1015C00004051B686F4ED4F800C03178C21A22F0AF
:1015D0007F420332002952D16B4FDFF8B091DFF820
:1015E000B0814FF480314FF4003E0124C5F844131C
:1015F000C5F80413C7F880E1C7F800E02C602F217C
:10160000D9F8005000BF00BF00BF00BF00BF00BF3F
:1016100000BF00BF45452FD000BF00BF00BF00BFC7
:1016200000BF00BF00BF00BF00BF00BF00BF00BFC2
:1016300000BF00BF00BF00BF00BF00BF00BF00BFB2
:1016400000BF00BF00BF00BF00BF00BF00BF00BFA2
:1016500000BF00BF00BF00BF00BF00BF00BF00BF92
:1016600000BF00BF00BF00BF00BF00BF00BF00BF82
:1016700000BF00BF00BF00BF0139C3D13470624555
:101680002CBF9A1803EB0C023D4922F07F43C1F8AE
:101690004035D1F80425121A1B1A22F07F4223F09C
:1016A0007F4303329A4248D9D1F80435374AC1F80A
:1016B0004035126836492F2300BF00BF00BF00BF6E
:1016C00000BF00BF00BF00BF8A422FD000BF00BFD5
:1016D00000BF00BF00BF00BF00BF00BF00BF00BF12
:1016E00000BF00BF00BF00BF00BF00BF00BF00BF02
:1016F00000BF00BF00BF00BF00BF00BF00BF00BFF2
:1017000000BF00BF00BF00BF00BF00BF00BF00BFE1
:1017100000BF00BF00BF00BF00BF00BF00BF00BFD1
:1017200000BF00BF00BF00BF00BF00BF013BC3D16F
:10173000154B4FF40032C3F80021104A00231370F8
:1017400007B0BDE8F08F2246D4F81CB0BBF1000F03
:1017500022D0D16910685B4600297FF401AF02E70F
:101760000C4B02931B680493002505951C4640E62C
:10177000521A1A6037E600BFA8060020B206002001
:1017800000100140C807002000E100E00C0000202C
:101790000024F400AC0600207549764BC1F808E03F
:1017A00075492F20096800BF00BF00BF00BF00BF00
:1017B00000BF00BF00BF99422FD000BF00BF00BFD5
:1017C00000BF00BF00BF00BF00BF00BF00BF00BF21
:1017D00000BF00BF00BF00BF00BF00BF00BF00BF11
:1017E00000BF00BF00BF00BF00BF00BF00BF00BF01
:1017F00000BF00BF00BF00BF00BF00BF00BF00BFF1
:1018000000BF00BF00BF00BF00BF00BF00BF00BFE0
:1018100000BF00BF00BF00BF00BF0138C3D1D16906
:101820001068002900F09B800122DA465B46019295
:1018300096E64F4A514B504E4E484FF480314FF48C
:1018400000370125C3F88070C2F848132F23C2F86F
:101850000813556031681E4600BF00BF00BF00BFBF
:1018600000BF00BF00BF00BF81422FD000BF00BF3C
:1018700000BF00BF00BF00BF00BF00BF00BF00BF70
:1018800000BF00BF00BF00BF00BF00BF00BF00BF60
:1018900000BF00BF00BF00BF00BF00BF00BF00BF50
:1018A00000BF00BF00BF00BF00BF00BF00BF00BF40
:1018B00000BF00BF00BF00BF00BF00BF00BF00BF30
:1018C00000BF00BF00BF00BF00BF00BF013EC3D1CB
:1018D00095602B4A146000BF00BF00BF00BF00BF6F
:1018E00000BF00BF00BF81422FD000BF00BF00BFBC
:1018F00000BF00BF00BF00BF00BF00BF00BF00BFF0
:1019000000BF00BF00BF00BF00BF00BF00BF00BFDF
:1019100000BF00BF00BF00BF00BF00BF00BF00BFCF
:1019200000BF00BF00BF00BF00BF00BF00BF00BFBF
:1019300000BF00BF00BF00BF00BF00BF00BF00BFAF
:1019400000BF00BF00BF00BF00BF013BC3D10D4BB4
:101950001C70F2E6059B002B3FF4EFAE2AE6012354
:101960001A4601938A468B460B4600922E74ECE58C
:10197000001001400024F4000C00002000E100E011
:10198000A8060020C80700202DE9F041594B5A4A0B
:101990005A4D5B4E4FF480344FF400310120C2F8B1
:1019A0008010C3F848432F21C3F8084358602D68BE
:1019B0000C4600BF00BF00BF00BF00BF00BF00BF9C
:1019C00000BFB5422FD000BF00BF00BF00BF00BFA7
:1019D00000BF00BF00BF00BF00BF00BF00BF00BF0F
:1019E00000BF00BF00BF00BF00BF00BF00BF00BFFF
:1019F00000BF00BF00BF00BF00BF00BF00BF00BFEF
:101A000000BF00BF00BF00BF00BF00BF00BF00BFDE
:101A100000BF00BF00BF00BF00BF00BF00BF00BFCE
:101A200000BF00BF00BF013CC3D1364C986000200E
:101A3000206000BF00BF00BF00BF00BF00BF00BFED
:101A400000BFB5422FD000BF00BF00BF00BF00BF26
:101A500000BF00BF00BF00BF00BF00BF00BF00BF8E
:101A600000BF00BF00BF00BF00BF00BF00BF00BF7E
:101A700000BF00BF00BF00BF00BF00BF00BF00BF6E
:101A800000BF00BF00BF00BF00BF00BF00BF00BF5E
:101A900000BF00BF00BF00BF00BF00BF00BF00BF4E
:101AA00000BF00BF00BF0139C3D1174D1749DFF890
:101AB0006080DFF860C0DFF860E028704FF48016C7
:101AC000E0250B27C8F800008CF800008EF8000015
:101AD000087048708F70C2F8806182F814531660E5
:101AE000C3F8080582F81153D3F804352360BDE824
:101AF000F08100BF0010014000E100E00C00002078
:101B00000024F400A8060020C8070020B406002026
:101B1000AC060020B0060020B1060020074B9B78E1
:101B20000BB9082070473AB130B10368187C00281F
:101B3000F7D159745A61704707207047B4060020E6
:101B40002DE9F041254CA37813B90820BDE8F081B8
:101B50000028FAD0042902D80720BDE8F0814369A3
:101B6000002BF2D0437C0546012B4FF000000CBF48
:101B70008846804617460E4600F06CF86378A078D9
:101B800021785A1CD2B2904208BF002291421ED046
:101B900003EB430304EBC30319464FF0010E41F876
:101BA000085F0F4883F804E0D0F8040548608E60B1
:101BB0000020C3F814809F61627000F053F8094B55
:101BC0004FF48012C3F800210020BDE8F08100200E
:101BD00000F048F80420BDE8F08100BFB406002002
:101BE0000010014000E100E070B5184CA3780BB97B
:101BF000082070BD0028FBD04369002BF8D00025D9
:101C000005740646284600F025F86278A078217809
:101C1000531CDBB2984208BF2B46994211D002EB0D
:101C2000420204EBC20202212846966011716370E1
:101C300000F018F8064B4FF48012C3F80021284634
:101C400070BD284600F00EF8042070BDB4060020D8
:101C500000E100E072B6024A136801331360704776
:101C6000CC070020034A1368013B136003B962B636
:101C7000704700BFCC070020B8B130B4416882681B
:101C80000468521AD2B2531E2160DBB242B101681D
:101C90000A685C1E551C0D601370E3B2FF2BF6D171
:101CA00003680020187130BC70470E20704700BFD9
:101CB00070B504460020FFF7CDFF236861681A68FD
:101CC0008A4215D9511E19602168A3680D680879E8
:101CD00012F8016C228AE4685B1BDBB2984206FBB7
:101CE000024400D20B710020FFF7BCFF204670BDFC
:101CF00000240020FFF7B6FF204670BD38B505462A
:101D000000200C46FFF7A6FF2A681368591C1160D3
:101D1000E9682A8A641AB4FBF2F41C700020BDE85A
:101D20003840FFF79FBF00BF826802B9704710B507
:101D3000044643692168006998470023A36010BDE9
:101D40000EB400B582B0039929B102AA04AB42F8DF
:101D5000043D00F089F802B05DF804EB03B0704771
:101D60002DE9F84F1746B9428A4606461D46DDF86A
:101D700028B00B9A73D30B464FF00108B3FBF7F36F
:101D80009F4208F10108F9D9A84538BFA84612F0CA
:101D9000010902D1BBF1000F41D1B168012402E079
:101DA000013D07FB04F4012DFAD8BAFBF4F39F427E
:101DB000F7D92C4D02E0B168BAFBF4F34A1CB260CB
:101DC0003268E85C5054B0687268904204FB13AA11
:101DD00002D33046FFF7A8FFB4FBF7F4002CEAD19A
:101DE000B9F1000F15D0BBF1000F12D0C34510D9C7
:101DF0002024B3683268591CB160D454B268736847
:101E00009A420BF1FF3B06D2BBF1000F01D0C34554
:101E1000EFD8BDE8F88F3046FFF786FFF4E7930769
:101E200018D42024C345B8D9B16833684A1CB260BD
:101E30005C54B168736899420BF1FF3B05D2BBF16A
:101E4000000FABD0C345F0D8A8E73046FFF76CFFD2
:101E5000B168F4E7002D14BF20243024E2E74FF0EE
:101E6000010891E770A803002DE9F04F0D4685B0F9
:101E7000002900F0B2800B78DFF8E8A4064691460E
:101E80000135002B00F0A580252B40F0A2812946CA
:101E90004FF000080D4611F8013B2D2B00F0938107
:101EA000302B00F093812B2B00F085812A2B00F042
:101EB0009E81A3F13002092A00F2BE816A1C00242F
:101EC00004EB840403EB44042A2BA4F130041546EC
:101ED00000F08E811378A3F13001092905F1010288
:101EE000EED91A462E2A00F09081002701E015F85D
:101EF000012F02F0FB03682BF9D0253A532A63D84F
:101F0000DFE812F0270162006200620062006200F6
:101F100062006200620062006200620062006200B1
:101F200062006200620062006200620062006200A1
:101F30006200620062006200620062006200620091
:101F40006200620062006200620062006200620081
:101F50006200620062006200620062006200620071
:101F6000620062006200620062004A016200620078
:101F70006200620062006200620062006200620051
:101F80003601CE006200620062006200CE00620094
:101F900062006200620062006200A90062006200EA
:101FA0006E0062005400620062004A01D9F80030FD
:101FB0001A1DC9F80020196800943B46CDF804802A
:101FC00030460A22FFF7CCFE01352B78002B7FF438
:101FD00057AF337B002B40F06C8105B0BDE8F08F2C
:101FE000D9F800301A1DC9F8002018F0010F1F6839
:101FF00040F02581002F00F0A581384637F077F9B1
:102000008046444515D9A4B14FF0200B00E084B1BF
:10201000B2683368511CB16003F802B0B2687368EB
:102020009A4204F1FF3402D33046FFF77DFE444567
:10203000EDD8013F17F8013F002BC5D0B2683168D9
:10204000501CB0608B54B26873689A42F2D3304629
:10205000FFF76AFEEEE7D9F80020131DC9F800303B
:10206000B36831681468581C3022B060CA54B36831
:102070007268934280F018813268581C7821B060F1
:10208000D154B26873689A4280F00A810823002212
:1020900001922146009330461022FFF761FE93E73C
:1020A000D9F800301A1DC9F80020D3F800B08BEA27
:1020B000EB73A3EBEB73092B4FF0010108DD8AFBF7
:1020C0000302DB17C3EBA203092B01F10101F6DCCC
:1020D000B94238BF394634B1BBF1000F02DB18F00A
:1020E000040F00D0013C18F0020F40F0D58018F02A
:1020F000010F18D1002C00F006818C4213D94FF04B
:10210000200CB2683368501CB06003F802C0B2689B
:1021100073689A4204F1FF3480F0F780002C00F0DD
:10212000F2808C42EDD8BBF1000FC0F20D8118F0A7
:10213000040F40F0F48008F00303022B00F0BF808E
:102140008DE8100159463B4630460A22FFF708FE4B
:102150003AE7B3683268581C2521B060D154B268A0
:1021600073689A42FFF430AF3046FFF7DDFD2BE78E
:10217000D9F80020131DC9F80030B368316812780F
:10218000581CB060CA54B26873689A42FFF41CAF1E
:102190003046FFF7C9FD17E7D9F800301A1DC9F816
:1021A0000020196800943B46CDF804803046102288
:1021B000FFF7D6FD08E70D4611F8013B2D2B48F03F
:1021C00004087FF46DAE48F0010863E648F00208A9
:1021D00060E6B2683168501CB0608B54B2687368B6
:1021E0009A42FFF4F2AE3046FFF79EFDEDE6002482
:1021F000D9F800301A1DC9F800206A781B682E2A09
:102200001C4405F101057FF470AE6A78A2F1300339
:10221000092B05F101054FF000073FF66AAE07EB09
:10222000870702EB470715F8012FA2F13003092BAE
:10223000A7F13007F3D95CE61A46002452E6B84607
:10224000C7EB080B18F8012B8AB1B1683368481C3A
:10225000B0605A54B26873689A42F1D33046FFF7BF
:1022600063FDC7EB080B18F8012B002AEDD15C4584
:102270007FF6AAAE2027B3683268591CB160D754E4
:10228000B26873689A4204F1FF3402D33046FFF714
:102290004BFD5C45EFD897E6002F3FF444AF26E7AF
:1022A0003046FFF741FDF1E63046FFF73DFDB368EC
:1022B000E2E6304605B0BDE8F04FFFF735BD002F30
:1022C0007FF43EAF002C3BD08C427FF639AF4FF00D
:1022D000300CB2683368501CB06003F802C0B268BA
:1022E00073689A4204F1FF3403D24CB38C42F0D8A5
:1022F00026E73046CDF80CC00291FFF715FDDDF85A
:102300000CC00299F1E700240DE73046CDF80CC06F
:102310000291FFF709FDDDF80CC00299FEE6B268F4
:10232000531CB36033682B209854B26873689A4288
:10233000FFF401AF30460291FFF7F6FC0299FAE68E
:102340000024FDE6B8465CE6B268531CB36033680F
:102350002D209854B26873689A42CBF1000BFFF4B9
:10236000EAAEE7E767666666FFF786BC2DE9F041EF
:10237000B0F81080A8F104084144CF1C0646FFF7CE
:1023800097FCB7FBF8F7044678B3FFB200250123AA
:10239000013FA0F8068006600571437128D0804691
:1023A00009E06379AF4203F101036371C8F80000EB
:1023B000066080461CD03046FFF77AFC01350028C5
:1023C000EFD16679721E234603D0013082421B682A
:1023D000FBD81F684EB100252368214601353846D9
:1023E0001C46FFF78BFCAE42F6D10020BDE8F08121
:1023F0002046BDE8F08100BF10B40430012350E84E
:10240000002F02EB030140E8001494F0000FF6D116
:102410005DF8044B704700BF0146021DF8B501206E
:1024200052E8004FA4EB000342E8003595F0000F9E
:10243000F6D113F0FF0300D0F8BD4E79701E0A46A6
:1024400003D0013398421268FBD81768002EF3D0EE
:1024500000240D6801343846FFF750FCA642294697
:10246000F7D1F8BD2DE9F0410446181DE688B0FB10
:10247000F6F30F46154606FB130013B1013B246823
:10248000FCD1321AAA4228BF2A468DB14FF000086B
:102490002044AD1A07EB08010430904436F026FBC7
:1024A000B5422A46246828BF32460020002DEFD1CD
:1024B000BDE8F0812DE9F041C688043304460F469B
:1024C000B3FBF6F0154606FB103110B10138246855
:1024D000FCD1721AAA4228BF2A468DB14FF00008DB
:1024E0002144AD1A043107EB0800904436F0FEFA9F
:1024F000B5422A46246828BF32460021002DEFD17C
:10250000BDE8F08110B50C4C23780BB1852010BDCF
:102510000A4A6360E3601068A36010F00100236161
:1025200002D1072100F01CF94FF080420123C2F8CC
:1025300018352370002010BDD007002000E100E016
:1025400030B51B4DAB78044683B003F0FF0073B188
:1025500014B16368012098470020FFF77BFBEB680C
:1025600000200133EB60FFF77DFB03B030BDFFF7C8
:1025700071FB64B12A6942B1944208D0134601E06C
:102580009C4204D01B68002BFAD122602C61EB68BE
:10259000002BE4D1074A08491360136801934FF0F8
:1025A000804202200123019CC2F804030B60D6E79D
:1025B000D0070020040100400800004008B50020BA
:1025C000FFF748FB0B49CB68013BCB60CB685BB99D
:1025D000094B01221A604FF08042D2F81834C3F33D
:1025E0000043002BF9D18B700020BDE80840FFF7B5
:1025F00039BB00BFD00700200C0000404FF08043E3
:10260000D3F81804C0F30040704700BF30B51A4D2E
:102610006B78044683B003F0FF0073B114B16368B4
:10262000002098470020FFF715FB6B68002001335E
:102630006B60FFF717FB03B030BDFFF70BFB64B116
:10264000AA6842B1944208D0134601E09C4204D0EB
:102650001B68002BFAD12260AC606B68002BE4D1C0
:10266000064A1360136801934FF0804301220199D9
:10267000C3F804231A60D8E7D00700200001004007
:1026800008B50020FFF7E6FA0C494B68013B4B60A8
:102690004B686BB90A4B01221A604FF08042D2F8A6
:1026A0000C3403F00113B3F1011FF8D000234B7079
:1026B0000020BDE80840FFF7D5BA00BFD0070020D2
:1026C000040000404FF08043D3F80C0400F00110E8
:1026D000A0F10110B0FA80F04009704710B51D4B11
:1026E0001A6882B0F2B91C4B1A680AB902B010BD60
:1026F00000221A601B6801934FF080430222174C9E
:102700000199C3F8082323690122A270002BEDD0A0
:102710001A6822615B68012098472369002BF7D172
:1027200002B010BD00221A601B6800934FF0804376
:1027300001220A4C0099C3F80823A3686270002B99
:10274000D1D01A68A2605B6800209847A368002B6C
:10275000F7D1C8E70001004004010040D007002085
:10276000002810B418DB00F1604303F56143490110
:10277000C9B283F80013C3B24009800000F1604081
:1027800000F5614003F01F0201239340C0F880313F
:1027900003605DF8044B7047C3B2044A03F00F04B2
:1027A00049012244C9B21176E6E700BFFCEC00E023
:1027B00030B51F4C94F8645083B015B1082003B0B5
:1027C00030BD4FF0FF33FF220620072123636363F0
:1027D000A363E36323646364A364E36423656365C1
:1027E000A365E36523606360A360E36023616361C5
:1027F000A361E361236284F860306362A36284F8BA
:102800006230E36284F8633084F86120FFF7A8FF48
:10281000084B094A1D601B68019301984FF0004363
:102820000121284684F86410C2F8043303B030BD97
:10283000E40700207C61004000600040034B93F8F7
:102840006400003018BF0120704700BFE40700207B
:10285000F0B56A4C251895F93030002B01DB0820C3
:10286000F0BD91F803E09446BEF1000F56D0236806
:10287000013300F0BB80082600256B1C5F4F54F825
:102880002320013251D0AB1C9E4245D957F823205A
:1028900001324AD0EB1C9E423ED957F82320013228
:1028A00043D02B1D9E4237D957F8232001323CD00C
:1028B0006B1D9E4230D957F82370013735D0AB1DC0
:1028C0009E4229D954F823204C4F01322DD0EB1DC4
:1028D0009E4221D957F82320013226D005F1080362
:1028E0009E4219D957F8232001321ED005F1090361
:1028F0009E4211D957F82320013216D005F10A0360
:102900009E4209D957F8237001370ED00B35AE42DD
:1029100002D9E36A013307D00420F0BD236A0133F2
:102920005CD00C260825A8E70B232618DDB244F856
:1029300023C0324686F83050BEF1000F02D1234446
:1029400083F858008B78DBB91F284A7887BF2C4E54
:1029500000F01F0303464FF0A04603F5E07392001A
:1029600046F82320CB78E3B96AB2083A14440978D0
:1029700094F8602042EA811284F860201846F0BD85
:102980001F2887BF1E4B00F01F0202464FF0A043D6
:1029900003EB8203D3F8002722F00202C3F80027DA
:1029A000E0E76BB29B0003F1804303F5C0430A7874
:1029B000D3F8101521F44F3121F44071C3F81015EC
:1029C0001204000202F44031D3F8104500F47C52A6
:1029D0000A432243C3F810250020F0BD082685F8DD
:1029E00030603346C4F820C03546A8E7002385F898
:1029F0003030C4F800C01D46A4E700BFE407002043
:102A000000030050F0B43A4D2E1882B096F83020F2
:102A100053B2072B20DD2B4493F858309B09032B2E
:102A200044D0012B0CBF4FF400324FF440321F282A
:102A300049D900F01F002F4B03EB8000D0F800377E
:102A400023F44033C0F80037D0F800371A43C0F8F9
:102A5000002702B0F0BC7047072AFAD8980000F1AE
:102A6000804000F5C04003F140029200D0F81045CC
:102A700092B202F18042002744F0010402F5C04204
:102A8000C0F810450197019817600029E1D096F928
:102A9000302055F82220002ADBD00122164902FA04
:102AA00003F3C1F8043302B0F0BC70471F280DD9FE
:102AB000104BD3F8103500F01F00C340DB0713D5CF
:102AC0004FF44032B7E74FF0A043B5E74FF0A042D4
:102AD0001346D2F81025C24012F0010F0CBF4FF47C
:102AE00000324FF44032A7E74FF40032A3E700BFB3
:102AF000E407002000030050006000401F288ABF48
:102B0000054B4FF0A04300F01F00D3F8103523FA17
:102B100000F000F001007047000300502DE9F04F75
:102B200089B00025B24B029503951A68012A00F07E
:102B30005081B04B1A68012A00F03D81AE4B1A68F3
:102B4000012A00F02A81AD4B1A68012A00F0178192
:102B5000AB4B1A68012A00F00481AA4B1A68012ABB
:102B600000F0F180A84B1A68012A00F0DE80A74B24
:102B70001A68012A00F0CB80A54B1A68012A00F0E0
:102B8000B58015F0FF0F1AD0A24F01260024A30034
:102B900003F180432E4203F5C0434FEA46060BD0B3
:102BA000D3F8100557F82420D3F81015C0F30520EA
:102BB000C1F3014102B190470134082CE7D1002D47
:102BC00002DB09B0BDE8F08F934F00224FF0FF33D6
:102BD000A7F1630904920592069307938F4C4FF077
:102BE000000A4FF0010814F8013FFF2B30D0DBB290
:102BF00023F0C00008AAC608951903F0070215F8CB
:102C0000081C08FA02F2114222D009EB000E9909C1
:102C10009EF930E059F82EC0BCF1000F56D00329C0
:102C200056D01F288ABF03F01F060646DFF8F0E1E2
:102C300015F818BC98BF4FF0A04E06F5E0761BEAD9
:102C4000020F5EF82650C5F301451AD1032D48D076
:102C5000BC42C8D1BAF1000FB3D04FF0A0430299E3
:102C6000D3F810356E4A9942D2F8102502D1039953
:102C70009142A6D004980599029303920690079179
:102C8000ACE7022DE4D1032904D0BCF1000FDFD062
:102C9000E047DDE74FF440321F288BBF604D4FF017
:102CA000A04503F01F03034605EB83030AF1010A65
:102CB000D3F8005725F44035C3F80057D3F8005730
:102CC0002A435FFA8AFAC3F80027DEE70329BFD157
:102CD0000DF1100B1BF806E04EEA020E0BF806E0B1
:102CE0009FE70329D1D14FF40032D5E700221A60C3
:102CF0001B6801934FF0A042019BD2F81025484B6E
:102D00000292D3F81035039345F0004539E7454A60
:102D1000D2F8042312067FF52FAF00221A601B6839
:102D20000093009B45F0800526E73E4AD2F8042335
:102D300051067FF51CAF00221A601B680093009BB0
:102D400045F0400513E7374AD2F8042390067FF593
:102D500009AF00221A601B680093009B45F0200514
:102D600000E7304AD2F80423D4067FF5F6AE0022FD
:102D70001A601B680093009B45F01005EDE6294A98
:102D8000D2F8042316077FF5E3AE00221A601B6811
:102D90000093009B45F00805DAE6224AD2F80423A6
:102DA00057077FF5D0AE00221A601B680093009B86
:102DB00045F00405C7E61B4AD2F8042392077FF5C5
:102DC000BDAE00221A601B680093009B45F002050F
:102DD000B4E61449D1F8041311F0010105D01D60C7
:102DE0001B680093009B1546A3E60D46A1E600BFB5
:102DF0000061004004610040086100400C61004037
:102E00001061004014610040186100401C610040E6
:102E10007C610040E40700204708002043080020B0
:102E200000030050006000400B4A0223C2F8043542
:102E3000BFF36F8FBFF34F8FC2F80805D2F800348D
:102E40000549002BFAD00023C1F80435BFF36F8F7A
:102E5000BFF34F8F704700BF00E0014082B32DE900
:102E6000F047184C0D468E18401AA0464FF0FF0C44
:102E70004FF0010E0027431903F0030123EA010379
:102E8000C900D3F8009015F8012BC4F804E50CFA3A
:102E900001FA29EA0A09BFF36F8FBFF34F8F8A4007
:102EA0004A441A60D4F80034002BFBD0C8F80475EB
:102EB000BFF36F8FBFF34F8FB542DCD1BDE8F08712
:102EC000704700BF00E001400220FEF71BB800BFC2
:102ED0002DE9F0470D460646FEF74CF80328044658
:102EE0001DD8012D1FD00ED3022D1AD11C4B00EB83
:102EF00040041C44657895B11A4B1B687BB1284689
:102F0000BDE8F04718471848FEF76EFE1449174A07
:102F100004EB44030B44155D9B789D42EBD0BDE868
:102F2000F087BDE8F087DFF8388047003B1808EBF2
:102F3000030218F8035053782BB9274447440B4B2E
:102F4000BA781A55D7E7DFF8289007484A464FF471
:102F50000041FEF7F5FD0028EFD189F80060ECE7AD
:102F6000C40800209C080020A00800206C08002055
:102F7000C108002010B50078FDF7FCFF03280BD82E
:102F8000064B00EB40001844407828B1044B1B6806
:102F900013B1BDE81040184710BD00BFC4080020A1
:102FA0009C080020B34B1B68DB0700D4704770B54A
:102FB000B14EB24D33782C78FBB9172C1CD8DFE812
:102FC00014F0F100140114016300760083009600F0
:102FD0005D0039002C0039002C00A300A800A800D7
:102FE000A800A800A800CE00DE00010146001800DD
:102FF0001800FDF771FF2C7070BDA14B1B780020ED
:103000003070002B00F00581FDF73EFF0120FDF739
:103010003BFF0320FDF738FFCFE70123184633704D
:10302000FDF770FF97484FF480410022BDE87040E3
:10303000FEF786BD012318463370FDF763FF914804
:1030400040F6CD410022BDE87040FEF779BD8C4BC3
:103050001B78002B00F0FE800020FDF715FF0120FB
:10306000FDF712FF0320FDF70FFF0020FDF7F8FE2C
:103070000120FDF7F5FE15232B7070BD0020FDF734
:10308000EFFE07232B7070BD0020FDF7D3FE002854
:1030900000F0D3800020FDF7F7FE46F266610323BF
:1030A0002B7078480022BDE87040FEF749BD002033
:1030B000FDF7C0FE002800F0C5800020FDF7E4FE0B
:1030C0004FF400310423EBE70020FDF7B3FE0028A6
:1030D00000F0BD800020FDF7D7FE05232B70694866
:1030E00041F69A110022BDE87040FEF729BD00208C
:1030F000FDF708FF06232B70624840F6CD41002201
:10310000BDE87040FEF71CBDFDF7E6FE0C232B70FA
:1031100070BD5D48FEF768FDD4F1110405467BD013
:10312000002879D1012C13D0C82303FB04F44FF4F9
:10313000FA704FF400430021C3FB04014FF47A728C
:10314000002337F031F82A4601464F48FEF7F8FCD5
:103150000220FDF785FE4A4B01221A7070BD484BD4
:103160001B78002B79D00020FDF78EFE0120FDF7A3
:103170008BFE0320FDF788FE12232B7070BD404BA1
:103180001B78002B6FD00020FDF77EFE0120FDF79D
:103190007BFE0320FDF778FE0020FDF761FE132380
:1031A0002B7070BD364B1B78002B59D00020FDF7DB
:1031B0006BFE0120FDF768FE0320FDF765FE00238E
:1031C0002B7070BD2E4B1B78002B4FD00020FDF7CD
:1031D0005BFE0120FDF758FE0320FDF755FE0120A0
:1031E000FDF73EFE14232B7070BD0020FDF722FE7C
:1031F000C8B10020FDF748FE022C4EF2666118BFF0
:103200004FF400312C701F480022BDE87040FEF7DB
:1032100097BCFDF74BFED0E60220FDF735FE184BBC
:1032200000221A7070BDFDF71BFE41F69A1343F29F
:103230003331022C08BF1946E4E7FDF711FE41F6D1
:103240009A112CE7FDF70CFE43F233313AE7FDF714
:1032500007FE42E7FDF72AFE07E7FDF727FE8BE7AB
:10326000FDF724FEABE7FDF721FE95E7FDF71EFE17
:10327000B5E700BF9408002098080020C00800208F
:10328000900800204C0800207008002038B5C44B7E
:103290001B6813F0010401D1204638BDC14C2378CE
:1032A0000546E3B9172D00F27881DFE815F00B0130
:1032B0003101310169007D009100A5005B003500FE
:1032C000280035002800B300BA00BA00BA00BA00DE
:1032D000BA00E300F6001C01420063006300B24B39
:1032E0001B7800202070002B00F02781FDF7CCFD1B
:1032F0000120FDF7C9FD0320FDF7C6FDD2E701233C
:1033000018462370FDF7FEFDA8484FF480410022C7
:10331000BDE83840FEF714BC012318462370FDF7C2
:10332000F1FDA24840F6CD410022BDE83840FEF74D
:1033300007BC9D4B1B78002B00F020810020FDF77F
:10334000A3FD0120FDF7A0FD0320FDF79DFD00205A
:10335000FDF786FD0120FDF783FD954B15221A70C0
:10336000002499E70020FDF77BFD914B07221A709E
:10337000002491E7FDF7B0FD8D4B00241D708BE715
:103380000020FDF757FD002800F0E1800020FDF748
:103390007BFD46F26661864B844803241C70002244
:1033A000BDE83840FEF7CCBB0020FDF743FD002808
:1033B00000F0DC800020FDF767FD4FF400317C4B0E
:1033C0007A4804241C700022BDE83840FEF7B8BBE0
:1033D0000020FDF72FFD002800F0CD800020FDF734
:1033E00053FD734B714805241C7041F69A1100225D
:1033F000BDE83840FEF7A4BB0020FDF783FD6C4B11
:103400006A4806241C7040F6CD410022BDE83840D1
:10341000FEF796BBFDF760FD654B0C221A70002489
:103420003AE76448FEF7E0FBD5F11105044600F0E9
:103430008780002840F08480012D14D0C82303FB2E
:1034400005F54FF4FA704FF400430021C3FB05016A
:103450004FF47A72002336F0A7FE22460146554803
:10346000FEF76EFB04460220FDF7FAFC4E4B0122EC
:103470001A7011E74C4B1B78002B00F08280002063
:10348000FDF702FD0120FDF7FFFC0320FDF7FCFC2A
:10349000474B12221A700024FEE6434B1B78002B88
:1034A00075D00020FDF7F0FC0120FDF7EDFC0320B6
:1034B000FDF7EAFC0020FDF7D3FC3D4B13221A7008
:1034C0000024E9E6384B1B78002B5DD00020FDF787
:1034D000DBFC0120FDF7D8FC0320FDF7D5FC344BC5
:1034E00000241C70D8E6304B1B78002B52D00020F3
:1034F000FDF7CAFC0120FDF7C7FC0320FDF7C4FC63
:103500000120FDF7ADFC2A4B14221A700024C3E6FB
:103510000020FDF78FFCF8B10020FDF7B5FC022D6F
:103520004EF2666118BF4FF40031214B1F481D70E9
:103530000022BDE83840FEF703BBFDF7B7FCB1E65B
:103540000220FDF7A1FC184B00221A70A4E6FDF73B
:1035500087FC41F69A111EE7FDF782FC41F69A13AB
:1035600043F23331022D08BF1946DEE7FDF778FC40
:1035700043F2333123E7FDF773FC32E7FDF796FCA6
:10358000E5E6FDF793FC83E7FDF790FCA7E7FDF781
:103590008DFC8FE7FDF78AFCB2E700247CE600BFD4
:1035A0009408002098080020900800204C08002073
:1035B000C008002070080020F0B5214A214B10609F
:1035C000044610F0020083B0196015D01E4B1F484E
:1035D0004FF00E0E0F2710261125042140F26662CF
:1035E00083F800E0DF709E715D72FDF7C1FDA0B150
:1035F000E3071DD403B0F0BDE20719D41448154AFF
:103600000021FEF78BFA0028F4D11348134A012158
:1036100003B0BDE8F040FEF781BAFDF703FE0028D5
:10362000E6D101460E4A0F48FEF778FAE10703D5C6
:103630000190FDF781FC01980028DFD003B0F0BDB8
:10364000940800209C080020C408002094A80300CF
:1036500090A80300A52F0000B8A80300C92E000001
:10366000752F0000B4A80300420700D4704708B5C6
:10367000084606F0BAF988B1831E022B0A4A06D919
:10368000062313701846BDE80840FFF7FFBD072367
:1036900013701846BDE80840FFF7F8BD024A1070E5
:1036A000BDE80840FFF7F2BDDE08002008B51C4B5E
:1036B0001B78032B27D8DFE803F021120702012033
:1036C000BDE80840FDF7CCBB0120FDF71BFC154809
:1036D00040F6CD410022BDE80840FEF731BA012096
:1036E000FDF7A8FB80B90120FDF7BAFB41F69A115E
:1036F0000C480022BDE80840FEF722BA0120BDE8D0
:103700000840FDF7C1BB08BD0120FDF7BDFB46F237
:10371000666104480022BDE80840FEF711BA00BF08
:10372000DD0800200009002008B51B78802B00D0A0
:1037300008BD0D4B072201201A70FDF77BFB68B115
:103740000020FDF7A1FB0120FDF79EFB074841F695
:103750009A110022BDE80840FEF7F2B9FDF780FBA0
:103760000120FDF77DFBF1E7DC080020E0080020E8
:1037700008B52C4A1378013BDBB2137083B10120EA
:10378000FDF758FBA0B9FDF76BFB0120FDF768FBC7
:10379000254841F69A110022BDE80840FEF7D0B94D
:1037A000224B1B78032B0DD8DFE803F0121B2B09EB
:1037B0000020FDF769FB0120FDF766FBE8E701202B
:1037C000FDF74EFB1A4B1878BDE80840FFF75EBDC9
:1037D0000120FDF759FB164B1878BDE80840FFF7AC
:1037E00055BD0120FDF726FBA8B10120FDF74CFBDC
:1037F00046F266610F480022FEF7A2F90028E1D0E8
:1038000008BD0120FDF77EFB40F6CD4100220948AE
:10381000FEF796F9F2E70120FDF722FB41F69A1137
:10382000E8E700BFDC080020E0080020DD080020F9
:10383000DE08002000090020F8B5134E134B144F8A
:10384000002421460C22054630461C703C7035F0A1
:1038500073F921460F4B1048104A3360FEF75EF9AA
:10386000044628B901460E4A0E48FEF757F90446A9
:103870002A4628460C4905F0A7FD2846024905F0CE
:1038800093FD2046F8BD00BFD0080020DD080020D1
:10389000DE08002029370000BCA80300AD36000078
:1038A00071370000C0A8030069360000112800D05D
:1038B0007047012000F006BC430770B505460E4670
:1038C0000FD40D4B30461C8806F08FF8240444F0CA
:1038D000030403462A4620460849BDE87040FDF728
:1038E0007DB8084606F081F802380228E9D90020A0
:1038F00000F0E8FBE5E700BFF0000020C4A80300EB
:1039000000B5002085B0FCF78BFD08B1FDF7A0FCE9
:10391000FCF778FDFEF738F808B1FDF799FC00F0E8
:10392000B1FC002400F012FC012500F0B5FC40F6CB
:10393000C4120A2301A80292039301948DF8065041
:1039400000F0D0FC00F07CFD124800F0A1FD01A8C1
:103950008DF804508DF805408DF806408DF807402D
:1039600000F082FB03200C49FFF726FE08B1FDF7AB
:103970006FFC00F087FDFFF75FFF08B1FDF768FC03
:1039800000F06AFDFCF7B4FD0028F9D100F070FDED
:10399000F6E700BFB9380000AD3800002DE9F84F58
:1039A000440004EB0008DFF87CB14FEAC8080BEBD9
:1039B00008038946D96A01298246164643D034D382
:1039C00002293CD100F1010A0AEB4A0A5D6A0BEBBD
:1039D000CA0A00271DE0126A641BB4422346A2EB08
:1039E000050428BF33469C42DAF8040028BF1C4671
:1039F00022462844494635F079F80BEB0803254464
:103A00001A6A954208BF0025361B2744A1445D620F
:103A100016D00BEB0802936AAB4203F1FF34DAD8FD
:103A2000126A1344013B5C1BD7E79A6A5D6AAA429B
:103A30009CBF1B6AD218013A521B964232D900270A
:103A40003846BDE8F88F9A6A5D6AAA4225D9571EA2
:103A50001B6A7F1BB74228BF37465E1BB74241D364
:103A60000AF1010808EB48080BEBC808A244D8F893
:103A700004004946324628440BEBCA0BBD1B35F007
:103A800035F8D8F8040009EB06012A4635F02EF87F
:103A9000CBF824503846BDE8F88F1B6AD718013F91
:103AA0007F1BD7E704440BEBC40B00F1010ADBF8E2
:103AB00020701C4B7F1BBE420AEB4A0A25D303EB46
:103AC000CA043A46606849462844F51B35F00EF8AA
:103AD00009EB070160682A4635F008F83746CBF84D
:103AE0002450ADE70AF1010303EB43030BEBC303DF
:103AF000A24458680BEBCA0B284449463A463D4459
:103B000034F0F4FFCBF824509AE703EBCA0349469C
:103B1000586832462844354434F0E8FF3746CBF83D
:103B200024508DE700C300202DE9F84F314C94F864
:103B300000E00546884617461E46BEF1000F27D016
:103B40002369DFF8B090AB424FD90020FEF782F82E
:103B50005DB929460D4404EBC5040A9BE3620020CD
:103B6000FEF780F80020BDE8F88F6B1C690003EBBE
:103B70004303DB004A1909EBC20209EB030E49F8C3
:103B800003800023CEF80470166253629362E1E76B
:103B9000194BDFF870B0DFF87090C4F828E04FF0F0
:103BA000100C4FF4007A0222A361A3641349C4F8F5
:103BB00024E0C4F82CE0C4F858E0C4F854E0C4F899
:103BC0005CE0C4F850C0E01DC4F81CB0C4F820A0EC
:103BD000C4F84C902261626135F06CFB20460849C4
:103BE00035F068FB2023A371AAE74FF0FF30BDE852
:103BF000F88F00BF00C30020F4A8030000A9030051
:103C000004A903003009002020090020F8B5114C58
:103C1000114B124AE3614FF4007E0023104FA36260
:103C200010266362E362A3656365E3650D49C4F82A
:103C300020E00225A261A264E01DE76426652561FB
:103C4000656135F037FB2046074935F033FB20230B
:103C5000A371F8BD00C3002030090020F4A80300C0
:103C60002009002000A9030004A903000649074A0F
:103C7000074B9B1A03DD043BC858D050FBDC00F017
:103C800013F8FCF7EBFA0000602C040000000020A1
:103C900020010020FEE7FEE7FEE7FEE7FEE7FEE785
:103CA000FEE7FEE7FEE7FEE7F0B4624B1B68082B79
:103CB00019D0614AD2F8883043F47003C2F88830D2
:103CC000BFF34F8FBFF36F8F4FF01023D3F8002255
:103CD000002A7DDBD3F80432002B79DB574B584A9E
:103CE0001A60F0BC7047574B19680029E1D14FF0BA
:103CF00080404FF08052C0F80C11534BC0F81011A7
:103D0000C0F83815D2F80414C3F82015D2F80814F6
:103D1000C3F82415D2F80C14C3F82815D2F81014DF
:103D2000C3F82C15D2F81414C3F83015D2F81814AF
:103D3000C3F83415D2F81C14C3F84015D2F8201477
:103D4000C3F84415D2F82414C3F84815D2F828143F
:103D5000C3F84C15D2F82C14C3F85015D2F830140F
:103D6000C3F85415D2F83414C3F86015D2F83814D7
:103D7000C3F86415D2F83C14C3F86815D2F840149F
:103D8000C3F86C15D2F84474304D3149C3F87075DE
:103D9000304C314E2E60FB23C1F818352368D2F821
:103DA000581205F50F3523F00F0205F56D7501F07A
:103DB0000F0313434FF4007223602A60D0F80034DD
:103DC000DB077FF576AF6FF00103C0F8003470E7D2
:103DD000224B0122C3F80425D3F80024002AFBD08B
:103DE0004FF0102312221D49C3F80022D1F80034ED
:103DF000002BFBD04FF0102312221849C3F80422E5
:103E0000D1F80024154B002AFAD00022C3F804256B
:103E1000D3F80024002AFBD0BFF34F8F0649104B84
:103E2000CA6802F4E0621343CB60BFF34F8F00BF58
:103E3000FDE700BF3001001000ED00E00C000020A5
:103E40000090D0033401001000C000408C560040A8
:103E500000F00040E40E00404881030000E0014013
:103E60000400FA05034B04491888000440F00300DD
:103E7000FCF74ABCF00000200CA9030031281CD03C
:103E800032280CD0302800D070474FF0A0434FF4B8
:103E900080310022C3F80815C3F80C2570474FF095
:103EA000A042D2F80435D94301F4803103F48033C1
:103EB000C2F80815C2F80C3570474FF0A0434FF414
:103EC00080310022C3F80C15C3F80825704700BFE5
:103ED0000B4B1B784FF0A04233B94FF40041C2F8AE
:103EE0000815C2F80C357047D2F80435D94301F4EF
:103EF000004103F40043C2F80815C2F80C357047BE
:103F0000740B002010B50E4C0E4800232370636024
:103F1000FDF76AFE0C4BDB7803B910BD0B48FDF7CB
:103F200063FE237A2BB90A4B30201B68BDE8104092
:103F30001847074B31201B68BDE81040184700BFE9
:103F4000740B0020500B0020700B0020300B002061
:103F500010000020F0B50646A7B008460C461546EE
:103F60001F4605F0EEF830B1204605F0EAF81028BB
:103F700001D027B0F0BD204605F0E7F80328F8D1BE
:103F8000284605F097FB0DF107020146012328465C
:103F900005F094FB012807D02E4B2F491888000408
:103FA00040F00300FCF7B0FB2C4B9DF807001B68AA
:103FB00098479DF80730312B44D0322B38D0302B26
:103FC0002ED0204605F0BDF80028D2D14422202171
:103FD00002A805F095F8204605F0B9F8014602A8B8
:103FE00005F0AAF8204605F0BDF80546204605F084
:103FF000B5F82946024602A805F084F8304602A921
:1040000005F0B2F804460028B3D030463A462146BF
:1040100005F0D1F80028ACD0204605F045FBA8E714
:104020000F4BDB78002BCCD00E4B00221A72C8E766
:104030000B4BDB78002BC4D00A4A137A83F00103C0
:104040001372BEE7064BDB78002BBAD0054B01227A
:104050001A72B6E7F00000208CA9030010000020BF
:10406000700B0020740B002010B5044600F00AFA13
:1040700041F2336105F086F800F004FA0E4900229F
:1040800005F094F80D4B206818601B7803B910BD3B
:1040900000F0F8F90A4CA06100F0F4F9A06000F01B
:1040A000F1F904F1100105F077F800F0EBF9214681
:1040B000BDE8104005F070B8653E0000700B0020B0
:1040C0001400002010B51C4C0346207078B121F07C
:1040D0003DFF00F59C530833184863604FF42031CE
:1040E0000022FDF72DFD164BDB789BB910BD134860
:1040F0006360FDF779FD124BDB78002BF6D0114899
:10410000FDF772FD237A8BB90F4B30201B68BDE899
:10411000104018470C4B30201B689847094840F660
:10412000CD410022BDE81040FDF70ABD064B31200D
:104130001B68BDE810401847740B0020500B00208E
:10414000700B0020300B0020100000200248034AB2
:104150000021FDF7E3BC00BFB0AA0300053F00004B
:1041600070B5A4B00C46684610211646452204F0EE
:10417000C7FF204604F0F6FF0546204604F0EEFF98
:1041800029460246684604F0BDFF684604F0D2FFA7
:1041900000F078F9694604F0E7FF044680B100F0CA
:1041A00071F905F0DAFB10220146204605F084FA89
:1041B000054648B1204605F077FA284624B070BD80
:1041C0000325284624B070BD00F05CF92146324634
:1041D00004F0F1FF05460028ECD1284624B070BD5C
:1041E0002DE9F041224C22788CB012B90CB0BDE818
:1041F000F081074608461E460D4604F0A2FF10282F
:104200008046F3D1284604F0A0FF0128EED10FCE5E
:104210000DF1040EAEE80F000FCEAEE80F0096E8E9
:1042200007008EE807004246002101A834F084FC14
:104230003846294601AAFFF793FF03460028D5D147
:104240000C4823706360FDF7CFFC0B4BDB78002B31
:10425000CCD00A48FDF7C8FC237A23B9084B30209C
:104260001B689847C2E7064B31201B689847BDE79B
:10427000740B0020500B0020700B0020300B00202E
:10428000100000200248034A0121FDF747BC00BF8F
:10429000B4AA0300D13E000030B400234FF4F03044
:1042A0004FF0A045032403E0D20748BF45F8214062
:1042B0000133202B40FA03F203F5E071F4D14FF003
:1042C000A04300214FF4F032C3F80825C3F80C15C1
:1042D0000A46034840F6CD4130BCFDF731BC00BF73
:1042E000300B0020F0B50746002083B0014621F0D6
:1042F00003FF494E494C05F061F83588206005F010
:10430000C9FB2D0445F00305024645492846FCF744
:10431000ABFA3588206805F025FB2D0445F0030530
:10432000024640492846FCF79FFA206804F0EAFF5D
:1043300010B9BB78002B4ED13A78012A57D0B96812
:10434000002944D17B780BB103B0F0BD2068012176
:1043500005F040F8206804F0D5FF10B9BB78002BB9
:10436000F2D02068012105F0A8FB30882E49000416
:1043700040F00300FCF7C8F93588206805F09FF885
:104380002D0445F00305024628492846FCF76CFA3F
:104390003588206805F0D7F82D0445F0030502465E
:1043A00023492846FCF760FA338820681C0405F08E
:1043B00072FA204B204A214910F0010F44F0030407
:1043C00018BF1A462046FCF74FFA03B0F0BD20682C
:1043D00005F02AFAB6E70B21206805F074F820688A
:1043E0004AF6CD3105F0B3F83A78012AA7D101A8F1
:1043F000002134F0A1FB9DF80430206803F0FE0397
:1044000043F0020319468DF8043005F06CFA206879
:10441000796805F0BBF892E7F0000020900B0020CF
:10442000B8AA0300D0AA0300E8AA030010AB030057
:1044300028AB030044AB03004CAB030058AB0300B4
:1044400010B5044C206800F075F82068BDE81040F5
:1044500025F014BA900B002010B5044C206805F02C
:10446000C8F92068BDE8104021F075BE900B00200F
:1044700008B5034B186805F0C8F900B920BF08BD9E
:10448000900B0020014B1868704700BF900B002074
:10449000034B1B6801461A46184604F095BF00BF3F
:1044A000900B00200EB410B5A3B025AB044653F812
:1044B000042B0193802102A835F090F802A834F073
:1044C00016FF236882B21B68204602A9984723B0D2
:1044D000BDE8104003B07047B0F80636B0F80826C3
:1044E000C3F580618A42CCBFA0F80A16A0F80A265C
:1044F000B0F80A1621B1184400F2062022F090BA52
:104500007047000010B50A4B0360044600F20C60CF
:1045100000F074FB0023A4F80432A4F80636A4F8D3
:104520000836A4F80A3622F0E9F9204610BD00BF8B
:1045300080AB030010B5044C01462046FFF7E2FFB4
:10454000024B1C6010BD00BF980B0020940B002094
:1045500010B5B0F80432C2180446D2780A2A01BF56
:1045600003F1FF339BB2A0F804321B1804BF0022F2
:104570001A71B0F80432C218211DD2780D2A01BF79
:1045800003F1FF339BB2A0F804321B1804BF0022D2
:104590001A7100F20C60B4F80422234603F03CFBCD
:1045A0000020A4F8040210BD70B504468E180D4614
:1045B000B542294649D20B780A2B05F1010507D0EF
:1045C00001D8082B02E00D2B02D07F2B16D028E05B
:1045D00023681E491B68204602229847B4F804321B
:1045E0002BB1234400221A712046FFF7B1FF236844
:1045F00017491B68204602229847D9E7B4F80432CD
:10460000002BD5D0236813491B6803222046984706
:10461000B4F80432013B9BB2A4F8043200222344D4
:1046200011E0B4F80432B3F5007FC1D2236801224F
:104630001B6820469847B4F804325A1CA4F8042298
:1046400015F8012C23441A71B2E770BD8BAB03003F
:1046500070AB030088AB03000A46034903460868B1
:104660001946FFF7A1BF00BF940B0020B0F80A362F
:104670000BB9FFF731BF704770B5B0F80846C4F505
:104680008064A4B2944228BF14460D466B1AA3421C
:104690000FDAB0F80826B0F8063615F8016B1344A7
:1046A000C3F309030344013283F80662A0F8082625
:1046B000ECE7FFF7DBFF204670BDB0F80A16B0F854
:1046C00006260A44C2F30902A0F80626B0F8082616
:1046D000521AA0F808260022A0F80A26FFF7FCBE0E
:1046E000014B1868FFF7E9BF940B002038B5054669
:1046F0000024E86B0C4A0368A2585B680B490C3431
:104700009847B4F53D7FF4D1002495F838309C42A9
:1047100009D2E86B6A6B036852F834205B6803497E
:1047200098470134F1E738BD90AB03001FBF030089
:10473000D0F8680104F04CBED0F8680104F046BE21
:1047400070B5C56B2B680446D0F868015E6805F04B
:1047500058F9054902462846B047E06B034903680B
:10476000BDE870405B681847F6B4030084AE0300F0
:1047700070B5C46B2368084611465D6825F080F863
:104780002B46024602492046BDE87040184700BF4C
:104790001FBF0300C06B024903685B68184700BF76
:1047A00084AE030070B5044659B9C06B694903680B
:1047B0005B689847E06B68490368BDE870405B68D8
:1047C00018471068654934F06BFD002840F0C1803F
:1047D000D4F8680104F04EFF0546E06B2A680368D0
:1047E0005F495B689847E06B6A6803685D495B688E
:1047F0009847E06BAA6803685B495B689847E06B81
:10480000EA68036859495B689847E06B2A6903685E
:1048100057495B689847E06B6A69036855495B686C
:104820009847E06BAA69036853495B689847E06B57
:10483000EA69036851495B689847E06B2A6A036834
:104840004F495B689847E06B6A6A03684D495B684B
:104850009847E06BAA6A03684B495B689847E06B2E
:10486000EA6A036849495B689847E06B2A6B03680A
:1048700047495B689847E06BAA6B036845495B68EA
:104880009847E06BEA6B036843495B689847E06BC5
:104890002A6C036841495B689847E06B6A6C03685F
:1048A0003F495B689847E06BAA6C03683D495B68C9
:1048B0009847E06BEA6C03683B495B689847E06B9C
:1048C0002A6D036839495B689847E06B6A6D036835
:1048D00037495B689847E06BAA6D036835495B68A8
:1048E0009847E06BEA6D036833495B689847E06B73
:1048F0002A6E036831495B689847E06B6A6E03680B
:104900002F495B689847E06BAA6E03682D495B6886
:104910009847E06BEA6E03682B495B689847E06B49
:104920002A6F036829495B689847E06B6A6F0368E0
:1049300027495B689847E06BAA6F036825495B6865
:104940009847E06BEA6F036823495B68BDE87040F5
:10495000184770BD8BAE030084AE030091AE030018
:1049600095AE0300A3AE0300B7AE0300CDAE0300C7
:10497000E6AE0300F8AE030013AF030024AF03005C
:1049800039AF03004CAF030066AF030078AF0300FC
:104990008AAF03009DAF0300B8AF0300C6AF0300AA
:1049A000DAAF0300F0AF030001B0030016B003005C
:1049B00029B0030043B0030055B0030071B00300F9
:1049C0008EB00300A5B00300BCB00300DDB003004F
:1049D000FBB003000EB1030021B1030010B5044683
:1049E00005F058F80246E06B044903685B68984795
:1049F0002046BDE81040FFF7CDBE00BF1FBF03003B
:104A000030B504468BB06946D0F8680104F05DFE0D
:104A1000E06BBDF8002003682F495B689847E06BA6
:104A2000BDF8022003682D495B689847E06BBDF82C
:104A3000042003682A495D68BDF80630A847E06B8A
:104A4000BDF80820036827495D68BDF80A30A8470B
:104A5000E06BBDF80C20036823495D68BDF80E309B
:104A6000A847E06BBDF81020036820495D68BDF8D9
:104A70001230A847E06BBDF8142003681C495D683C
:104A8000BDF81630A847E06BBDF818200368194937
:104A90005D68BDF81A30A847E06BBDF81C200368BC
:104AA00015495D68BDF81E30A847E06BBDF82020B1
:104AB000036812495D68BDF82230A847E06B1049D1
:104AC0000368BDF824205D68BDF82630A84720465D
:104AD000FFF760FE0BB030BD36B1030042B10300FA
:104AE0004DB103005FB1030071B103007EB103005B
:104AF0008BB1030098B10300C6B10300A5B1030058
:104B0000BAB10300F0B504468FB00025D4F86801AF
:104B1000E9B209AA05F0B2F800284BD19DF8363069
:104B2000DB0745D5BDF82430BDF82870E06BC3F332
:104B3000072242EA0322BDF826300668C3F30721A4
:104B400041EA0323C7F3072141EA0721BDF82A7090
:104B500089B20091C7F3072141EA0721BDF82C7003
:104B600089B20191C7F3072141EA0721BDF82E70F0
:104B700089B20291C7F3072141EA0721BDF83070DD
:104B800089B20391C7F3072141EA0721BDF83270CA
:104B900089B20491C7F3072141EA072189B205913F
:104BA000BDF8341006917668054992B29BB2B047C1
:104BB0000135ABE72046FFF7EDFD0FB0F0BD00BFBC
:104BC000D4B1030010B50446D0F8680104F0B1FF79
:104BD000E36B1A68526810B11846054901E00549AF
:104BE000184690472046BDE81040FFF7D3BD00BFF0
:104BF000F3B10300FAB1030000BA704770B5044680
:104C0000002520630E46456380F83850C563294669
:104C10002C22403033F090FF0823A4F86C3001239D
:104C2000A4F86E304FF47A732367184B636704F16E
:104C30007403E3672946A56784F8EC50C4F82C4157
:104C4000C4F8686104F18000602233F075FF2246E9
:104C500030460F4904F0B8FB2246D4F868010D49EC
:104C600004F01CFF0C4BC4F8E03004F1E001C4F880
:104C7000E440D4F8680104F097FB04F1ED00294604
:104C80003E2233F059FF204670BD00BF796F00000F
:104C9000757D0000E57D0000456E00002DE9F041C6
:104CA000074690460C4634F022FB3D1800F0010602
:104CB0000130B8EB500F03D338462146002306E0FD
:104CC0004FF0FF30BDE8F0811B01DBB20126A842A6
:104CD0001AD210F8012BA2F14107052F01D8373A5B
:104CE00004E0A2F16107052F03D8573A1343DBB262
:104CF00004E0303AD2B2092AE2D81343002EE3D0BE
:104D00000B7000260131D9E7081BBDE8F0810000D7
:104D100070B50C4619B9BDE87040FFF73BBDC56BD7
:104D20002B6808465E6806F05DF922460346B446E5
:104D300028460249BDE87040604700BF15BF030028
:104D400070B505460E4681B9D0F8680104F0CCFE76
:104D50000446E86B03685B681CB11249984731460A
:104D60001AE011499847214616E014680F49204679
:104D700034F096FA18B9D5F86801012107E00C491A
:104D8000204634F08DFA014628B9D5F8680104F0C0
:104D9000C5FE014600E007212846BDE87040FFF748
:104DA000B7BF00BFF3B10300FAB1030005D203009F
:104DB00041D2030010B5044603F0A8FF0146204687
:104DC000BDE81040FFF7A4BF10B50446D0F8680155
:104DD000E36B03F069FD01462046BDE81040FFF794
:104DE00097BF000070B505460E4681B9D0F868013E
:104DF00004F0F8FA0446E86B03685B681CB11249DA
:104E0000984731461AE011499847214616E0146840
:104E10000F49204634F044FA18B9D5F86801012149
:104E200007E00C49204634F03BFA014628B9D5F892
:104E3000680104F0CFFA014600E000212846BDE8F1
:104E40007040FFF765BF00BF02B2030007B2030066
:104E5000D3EF03000EB2030037B504466946D0F81D
:104E6000680104F0C6FD054608BBE06B1349036802
:104E7000009A5B689847E06B114903689DF804202D
:104E80005B689847E06B0F4903689DF805205B68F5
:104E90009847E06B0C4903689DF806205B689847CB
:104EA000E06B0A4903689DF807205B689847204635
:104EB0002946FFF72DFF03B030BD00BF13B203003A
:104EC00026B203003DB2030036B2030050B2030025
:104ED0007FB50446B1B9D0F8680104F0D7FE461E8C
:104EE00000F10F05E06B16F8012F03680F495B68AE
:104EF0009847AE42F6D1E06B0D4903685B6898476E
:104F000000210EE0106869461022FFF7C7FE102846
:104F100006D16946D4F8680104F0BDFE014600E000
:104F200006212046FFF7F4FE04B070BD46E0030002
:104F300044BF030073B5002304468DF804300029F4
:104F40002ED1D0F8680104F0A6FC8DF80400C0074B
:104F500004D5E06B2C4903685B6898479DF80430E2
:104F6000990704D5E06B294903685B6898479DF869
:104F700004305A0704D5E06B254903685B689847FD
:104F80009DF804301B0704D5E06B224903685B6879
:104F90009847E06B204903685B68984700212DE043
:104FA00011681E461D461846013911F8012FA2B19D
:104FB0006E2A0ED002D8642A09D006E0722A02D0E6
:104FC000732A08D001E00123EFE7062116E001254E
:104FD000EBE70120E9E70126E7E79DF8041063F31A
:104FE000000166F3410165F3820160F3C301D4F867
:104FF00068018DF8041004F076FC0146204602B0EA
:10500000BDE87040FFF784BE43C9030088EB03008E
:10501000B4040400DDC8030044BF0300F0B500235E
:1050200089B099420446ADF8023040F38D8015688E
:105030004849284634F034F9B0FA80F676092EB99A
:105040002846454934F02CF978B17DE0E06B4349BE
:1050500003685B689847E06B414903685B68984761
:1050600003E04049BDF81020984701AFD4F868012B
:105070000DF102013A4604F0AFFC0546E06B03680F
:105080005B68002D5CD1002EEBD09DF81F203649C7
:1050900012F0100F14BF432252229847E06B33499D
:1050A0000368BDF810205B689847E06B30490368DF
:1050B000039A5B689847E06B2E4903689DF91D20B1
:1050C0005B689847E06B2C4903689DF91E205B687C
:1050D0009847E06B9DF81F20036828495B6802F041
:1050E00001029847E06B9DF81F20036823495B6825
:1050F000C2F340029847E06B9DF81F2003681F49E8
:105100005B68C2F380029847E06B9DF81F2003683C
:105110001A495B68C2F3C0029847E06B18490368FC
:105120005B689847E06B7A5D036816495B680135F8
:105130009847082DF6D1E06B134903685B688EE74A
:1051400012499847002100E006212046FFF7E0FDC4
:1051500009B0F0BD67B203007BB903006DB2030074
:10516000B9B203000FB3030005B303000DB303008E
:1051700017B303001EB3030025B303002CB30300D1
:105180007BB8030046E003005BB6030044BF0300A6
:1051900010B50446D0F8680104F0A7F8014620468F
:1051A000BDE81040FFF7B4BDF0B587B001AF0446CD
:1051B0003946D0F8680104F029FC064600282FD1B2
:1051C000E06B1A4903685B6898473546E06B7A5D87
:1051D000036817495B6801359847082DF6D1E06BE5
:1051E000144903685B689847E06B13490368BDF88E
:1051F0000C205B689847E06B104903689DF811200C
:105200005B689847E06B0E4903689DF812205B6865
:105210009847E06B0B4903689DF813205B6898473B
:1052200020463146FFF774FD07B0F0BD31B30300EF
:1052300046E0030044BF03003CB3030047B3030050
:105240005DB3030074B3030038B504460D4681B95D
:10525000D0F8680104F0FBF970B3D4F8680121F0CC
:105260006FF848B3E06B1A4903685B6898472946B2
:1052700028E015681749284634F012F848B9D4F8E0
:1052800068011549224604F0DDF9D4F868010121CE
:105290000EE02846114934F003F8054688B9D4F8E1
:1052A000680129462A4604F0CDF9D4F86801294658
:1052B00004F0D2F9014605E0E06B094903685B6838
:1052C000984700212046BDE83840FFF721BD00BFC8
:1052D0008DB303007EB30300A170000085B303000B
:1052E000E5B8030070B505460E4679B9D0F86801F7
:1052F00004F041FC0446E86B03685B681CB112498A
:10530000984731461BE0114998470BE01668104951
:10531000304633F0C5FF044630B9D5F868010121A5
:1053200004F02EFC21460AE030460A4933F0B8FF6B
:10533000044618B9D5F868012146F1E70621284648
:10534000BDE87040FFF7E4BC8DB30300E5B803008F
:105350007EB3030085B3030038B5044600292BD182
:10536000D0F8680104F041FBE36B04281DD8DFE8A6
:1053700000F003080D1217001A68274952681846F2
:1053800017E01A6825495268184612E01A6824493D
:10539000526818460DE01A6822495268184608E01B
:1053A0001A6821495268184603E01A681F49526872
:1053B0001846904700212AE015681D49284633F019
:1053C0006FFF20B9D4F8680104F0FBFA1CE028460E
:1053D000184933F065FF20B9D4F8680104F0F6FAF3
:1053E00012E02846144933F05BFF20B9D4F8680175
:1053F00004F004FC08E02846104933F051FF28B9B6
:10540000D4F8680104F00CFC014600E006212046B7
:10541000BDE83840FFF77CBC97B30300A2B303009C
:10542000ADB30300B5B30300BEB30300C7B30300BD
:10543000D7B30300BDCB0300E0B30300E7B3030021
:10544000002938B5044615DD15680D49284633F0A6
:1054500027FF18B9D4F86801012107E00949284657
:1054600033F01EFF014628B9D4F8680104F025FB8B
:10547000014600E006212046BDE83840FFF748BC61
:1054800049BA0300EEB3030010B5044600F5967068
:1054900003F08AFD01462046BDE81040FFF738BC06
:1054A000F0B50F1E87B00546164626DD146817496D
:1054B000204633F0F5FEB0B9012F1ED0144B0093F7
:1054C000144B0193022F4FF00004134B03930CBFB6
:1054D0000246B26802940495D5F8680171680F4BD2
:1054E00003F0C8FF0BE020460D4933F0D9FE30B978
:1054F000D5F8680103F0C6FF01E0062100E00021B5
:10550000284607B0BDE8F040FFF702BC49BA0300E7
:10551000FEB3030007B4030045770000F3B30300B4
:10552000EEB303007FB50446B1B9D0F8680104F0CA
:10553000F2F9461E00F10F05E06B16F8012F036823
:105540000F495B689847AE42F6D1E06B0D4903689E
:105550005B68984700210EE0106869461022FFF74B
:105560009DFB102806D16946D4F8680104F0D8F9EB
:10557000014600E006212046FFF7CAFB04B070BDDB
:1055800046E0030044BF030070B505460C46D0F862
:10559000680151B904F0E6F90346E86B074902686F
:1055A00056681022B047214603E0116804F0DEF986
:1055B00001462846BDE87040FFF7AABB16B40300B9
:1055C000F8B507460D4616460C46631BB34207DA8C
:1055D000F86B0449036814F8012B5B689847F4E7FB
:1055E000F8BD00BF46E0030037B505460C4681B95B
:1055F000D0F86801694603F09BFF284669460822F7
:10560000FFF7DEFFE86B064903685B6898472146B1
:1056100000E006212846FFF77BFB03B030BD00BF4A
:1056200044BF030037B505460C4681B96946D0F83A
:10563000680103F02CFF284669460822FFF7C0FFE7
:10564000E86B064903685B689847214600E006213D
:105650002846FFF75DFB03B030BD00BF44BF030029
:1056600037B505460C4679B9D0F8680103F046FF16
:10567000082201462846FFF7A3FFE86B0C490368A0
:105680005B68984721460EE0106869460822FFF7DC
:1056900005FB002801DA062105E06946D5F8680116
:1056A00003F02FFF01462846FFF732FB03B030BD61
:1056B00044BF030037B505460C4679B9D0F86801F8
:1056C00004F0B7F8082201462846FFF779FFE86B97
:1056D0000C4903685B68984721460EE010686946EC
:1056E0000822FFF7DBFA002801DA062105E0694607
:1056F000D5F8680104F0A1F801462846FFF708FB39
:1057000003B030BD44BF030013B500220C4601A90D
:1057100033F0A2FE019B20601B78002B14BF0620F3
:10572000002002B010BD0000F7B505460C4661B977
:10573000C66BD0F8680133685F6803F0C0FE0C499F
:1057400002463046B84721460CE001A91068FFF731
:10575000DBFF014630B99DF80410D5F8680103F06D
:10576000B2FE01462846FFF7D3FA03B0F0BD00BFF2
:10577000EBB403002DE9F04100298AB0044640F360
:105780001B8115689049284633F08AFDB0FA80F6EF
:1057900076092EB928468D4933F082FD50B187E055
:1057A000E06B8B4903685B689847E06B8949036845
:1057B0005B68984700270DF10808D4F86801F9B232
:1057C000424604F04BFA054640B117286ED0E06B14
:1057D000814903685B6898470025EEE0049B002B35
:1057E00064D0E06BBDF81A2003685B68002E5BD0C4
:1057F0007A499847E06B7A490368BDF818205B68DE
:105800009847E06B77490368049A5B689847E06BB8
:1058100074490368059A5B689847E06B72490368AE
:105820009DF81D205B689847E06B704903689DF800
:105830001C205B689847E06B9DF8202003686C494A
:105840005B6802F001029847E06B9DF82020036836
:1058500067495B68C2F340029847E06B9DF82020DF
:10586000036863495B68C2F380029847E06B9DF868
:10587000202003685E495B68C2F3C0029847E06B72
:105880005C4903685B689847E06B18F8052003687B
:1058900059495B6801359847082DF5D1E06B5749A8
:1058A00003685B68984701E055499847013782E7EC
:1058B000284601A9FFF728FF054600287DD102AF41
:1058C000D4F86801BDF804103A4604F0BFF9054663
:1058D000002872D1E06B4B490368BDF81A205B6861
:1058E0009847E06B48490368BDF818205B68984703
:1058F000E06B464903685B6898472E46E06BBA5DEB
:1059000003683D495B6801369847082EF6D1E06B85
:10591000314903685B689847E06B3D4903685B6801
:1059200098479DF82030D80704D5E06B39490368C3
:105930005B6898479DF82030990704D5E06B36499D
:1059400003685B6898479DF820305A0704D5E06BE0
:10595000324903685B6898479DF820301B0704D5DF
:10596000E06B2F4903685B689847E06B1A4903684E
:105970005B689847E06B9DF81C20036829495B68C9
:105980009847E06B049A036827495B689847E06B87
:10599000059A036825495B689847E06B9DF81D20D0
:1059A000036823495B689847E06B224903689DF9C7
:1059B0001E205B68984700E0062520462946FFF731
:1059C000A7F90AB0BDE8F08167B203007BB9030014
:1059D0001DB4030074B4030044BF030017B30300F5
:1059E0000DB30300CBB40300D3B40300DAB4030057
:1059F0002CB303007BB8030046E003005BB6030052
:105A00006CC00300E1B40300F0B4030031B3030041
:105A1000FDB4030043C9030088EB0300B404040091
:105A2000DDC8030004B5030013B5030074B303001D
:105A300047B3030021B50300F7B505460C4661B92D
:105A4000C66BD0F8680133685F6804F082F80C49CF
:105A500002463046B84721460CE001A91068FFF71E
:105A600053FE014630B99DF80410D5F8680104F0E2
:105A70007DF801462846FFF74BF903B0F0BD00BFA3
:105A8000EBB40300F7B505460C4659B9C66BD0F820
:105A9000680133685F6803F0C3FE0B490246304675
:105AA000B8470AE0106801A9FFF72EFE044620B9A6
:105AB000D5F86801019903F0B7FE28462146FFF7A3
:105AC00027F903B0F0BD00BFEBB4030073B5044683
:105AD00059B9C56BD0F868012B685E6804F06FF89F
